{
  "contractName": "Kittycontract",
  "abi": [
    {
      "inputs": [],
      "payable": false,
      "stateMutability": "nonpayable",
      "type": "constructor"
    },
    {
      "anonymous": false,
      "inputs": [
        {
          "indexed": true,
          "internalType": "address",
          "name": "owner",
          "type": "address"
        },
        {
          "indexed": true,
          "internalType": "address",
          "name": "approved",
          "type": "address"
        },
        {
          "indexed": true,
          "internalType": "uint256",
          "name": "tokenId",
          "type": "uint256"
        }
      ],
      "name": "Approval",
      "type": "event"
    },
    {
      "anonymous": false,
      "inputs": [
        {
          "indexed": true,
          "internalType": "address",
          "name": "owner",
          "type": "address"
        },
        {
          "indexed": true,
          "internalType": "address",
          "name": "operator",
          "type": "address"
        },
        {
          "indexed": false,
          "internalType": "bool",
          "name": "approved",
          "type": "bool"
        }
      ],
      "name": "ApprovalForAll",
      "type": "event"
    },
    {
      "anonymous": false,
      "inputs": [
        {
          "indexed": false,
          "internalType": "address",
          "name": "owner",
          "type": "address"
        },
        {
          "indexed": false,
          "internalType": "uint256",
          "name": "kittenId",
          "type": "uint256"
        },
        {
          "indexed": false,
          "internalType": "uint256",
          "name": "mumId",
          "type": "uint256"
        },
        {
          "indexed": false,
          "internalType": "uint256",
          "name": "dadId",
          "type": "uint256"
        },
        {
          "indexed": false,
          "internalType": "uint256",
          "name": "genes",
          "type": "uint256"
        },
        {
          "indexed": false,
          "internalType": "uint256",
          "name": "generation",
          "type": "uint256"
        }
      ],
      "name": "Birth",
      "type": "event"
    },
    {
      "anonymous": false,
      "inputs": [
        {
          "indexed": true,
          "internalType": "address",
          "name": "from",
          "type": "address"
        },
        {
          "indexed": true,
          "internalType": "address",
          "name": "to",
          "type": "address"
        },
        {
          "indexed": true,
          "internalType": "uint256",
          "name": "tokenId",
          "type": "uint256"
        }
      ],
      "name": "Transfer",
      "type": "event"
    },
    {
      "anonymous": false,
      "inputs": [
        {
          "indexed": true,
          "internalType": "address",
          "name": "owner",
          "type": "address"
        },
        {
          "indexed": true,
          "internalType": "address",
          "name": "operator",
          "type": "address"
        },
        {
          "indexed": false,
          "internalType": "bool",
          "name": "approved",
          "type": "bool"
        }
      ],
      "name": "approvalForAll",
      "type": "event"
    },
    {
      "constant": true,
      "inputs": [],
      "name": "Creation_Limit_Gen",
      "outputs": [
        {
          "internalType": "uint256",
          "name": "",
          "type": "uint256"
        }
      ],
      "payable": false,
      "stateMutability": "view",
      "type": "function"
    },
    {
      "constant": true,
      "inputs": [],
      "name": "gencounter",
      "outputs": [
        {
          "internalType": "uint256",
          "name": "",
          "type": "uint256"
        }
      ],
      "payable": false,
      "stateMutability": "view",
      "type": "function"
    },
    {
      "constant": true,
      "inputs": [
        {
          "internalType": "uint256",
          "name": "",
          "type": "uint256"
        }
      ],
      "name": "kittyIndexToApproved",
      "outputs": [
        {
          "internalType": "address",
          "name": "",
          "type": "address"
        }
      ],
      "payable": false,
      "stateMutability": "view",
      "type": "function"
    },
    {
      "constant": true,
      "inputs": [],
      "name": "tokenName",
      "outputs": [
        {
          "internalType": "string",
          "name": "",
          "type": "string"
        }
      ],
      "payable": false,
      "stateMutability": "view",
      "type": "function"
    },
    {
      "constant": true,
      "inputs": [],
      "name": "tokenSymbol",
      "outputs": [
        {
          "internalType": "string",
          "name": "",
          "type": "string"
        }
      ],
      "payable": false,
      "stateMutability": "view",
      "type": "function"
    },
    {
      "constant": false,
      "inputs": [
        {
          "internalType": "uint256",
          "name": "_dadId",
          "type": "uint256"
        },
        {
          "internalType": "uint256",
          "name": "_mumId",
          "type": "uint256"
        }
      ],
      "name": "breed",
      "outputs": [
        {
          "internalType": "uint256",
          "name": "",
          "type": "uint256"
        }
      ],
      "payable": false,
      "stateMutability": "nonpayable",
      "type": "function"
    },
    {
      "constant": true,
      "inputs": [
        {
          "internalType": "bytes4",
          "name": "_interfaceId",
          "type": "bytes4"
        }
      ],
      "name": "supportsInterface",
      "outputs": [
        {
          "internalType": "bool",
          "name": "",
          "type": "bool"
        }
      ],
      "payable": false,
      "stateMutability": "view",
      "type": "function"
    },
    {
      "constant": false,
      "inputs": [
        {
          "internalType": "uint256",
          "name": "_genes",
          "type": "uint256"
        }
      ],
      "name": "createKittyGen0",
      "outputs": [
        {
          "internalType": "uint256",
          "name": "",
          "type": "uint256"
        }
      ],
      "payable": false,
      "stateMutability": "nonpayable",
      "type": "function"
    },
    {
      "constant": true,
      "inputs": [
        {
          "internalType": "uint256",
          "name": "_id",
          "type": "uint256"
        }
      ],
      "name": "getKitty",
      "outputs": [
        {
          "internalType": "uint256",
          "name": "genes",
          "type": "uint256"
        },
        {
          "internalType": "uint256",
          "name": "birthTime",
          "type": "uint256"
        },
        {
          "internalType": "uint256",
          "name": "mumId",
          "type": "uint256"
        },
        {
          "internalType": "uint256",
          "name": "dadId",
          "type": "uint256"
        },
        {
          "internalType": "uint256",
          "name": "generation",
          "type": "uint256"
        }
      ],
      "payable": false,
      "stateMutability": "view",
      "type": "function"
    },
    {
      "constant": true,
      "inputs": [
        {
          "internalType": "address",
          "name": "owner",
          "type": "address"
        }
      ],
      "name": "balanceOf",
      "outputs": [
        {
          "internalType": "uint256",
          "name": "",
          "type": "uint256"
        }
      ],
      "payable": false,
      "stateMutability": "view",
      "type": "function"
    },
    {
      "constant": true,
      "inputs": [],
      "name": "totalSupply",
      "outputs": [
        {
          "internalType": "uint256",
          "name": "",
          "type": "uint256"
        }
      ],
      "payable": false,
      "stateMutability": "view",
      "type": "function"
    },
    {
      "constant": true,
      "inputs": [],
      "name": "name",
      "outputs": [
        {
          "internalType": "string",
          "name": "",
          "type": "string"
        }
      ],
      "payable": false,
      "stateMutability": "view",
      "type": "function"
    },
    {
      "constant": true,
      "inputs": [],
      "name": "symbol",
      "outputs": [
        {
          "internalType": "string",
          "name": "",
          "type": "string"
        }
      ],
      "payable": false,
      "stateMutability": "view",
      "type": "function"
    },
    {
      "constant": true,
      "inputs": [
        {
          "internalType": "uint256",
          "name": "tokenId",
          "type": "uint256"
        }
      ],
      "name": "ownerOf",
      "outputs": [
        {
          "internalType": "address",
          "name": "",
          "type": "address"
        }
      ],
      "payable": false,
      "stateMutability": "view",
      "type": "function"
    },
    {
      "constant": false,
      "inputs": [
        {
          "internalType": "address",
          "name": "to",
          "type": "address"
        },
        {
          "internalType": "uint256",
          "name": "tokenId",
          "type": "uint256"
        }
      ],
      "name": "transfer",
      "outputs": [],
      "payable": false,
      "stateMutability": "nonpayable",
      "type": "function"
    },
    {
      "constant": true,
      "inputs": [
        {
          "internalType": "address",
          "name": "_claimant",
          "type": "address"
        },
        {
          "internalType": "uint256",
          "name": "_tokenId",
          "type": "uint256"
        }
      ],
      "name": "_own",
      "outputs": [
        {
          "internalType": "bool",
          "name": "",
          "type": "bool"
        }
      ],
      "payable": false,
      "stateMutability": "view",
      "type": "function"
    },
    {
      "constant": false,
      "inputs": [
        {
          "internalType": "address",
          "name": "from",
          "type": "address"
        },
        {
          "internalType": "address",
          "name": "to",
          "type": "address"
        },
        {
          "internalType": "uint256",
          "name": "_tokenId",
          "type": "uint256"
        }
      ],
      "name": "_transfer",
      "outputs": [],
      "payable": false,
      "stateMutability": "nonpayable",
      "type": "function"
    },
    {
      "constant": false,
      "inputs": [
        {
          "internalType": "address",
          "name": "_approved",
          "type": "address"
        },
        {
          "internalType": "uint256",
          "name": "_tokenId",
          "type": "uint256"
        }
      ],
      "name": "approve",
      "outputs": [],
      "payable": false,
      "stateMutability": "nonpayable",
      "type": "function"
    },
    {
      "constant": false,
      "inputs": [
        {
          "internalType": "address",
          "name": "_operator",
          "type": "address"
        },
        {
          "internalType": "bool",
          "name": "_approved",
          "type": "bool"
        }
      ],
      "name": "setApprovalForAll",
      "outputs": [],
      "payable": false,
      "stateMutability": "nonpayable",
      "type": "function"
    },
    {
      "constant": true,
      "inputs": [
        {
          "internalType": "uint256",
          "name": "_tokenId",
          "type": "uint256"
        }
      ],
      "name": "getApproved",
      "outputs": [
        {
          "internalType": "address",
          "name": "",
          "type": "address"
        }
      ],
      "payable": false,
      "stateMutability": "view",
      "type": "function"
    },
    {
      "constant": true,
      "inputs": [
        {
          "internalType": "address",
          "name": "_owner",
          "type": "address"
        },
        {
          "internalType": "address",
          "name": "_operator",
          "type": "address"
        }
      ],
      "name": "isApprovedForAll",
      "outputs": [
        {
          "internalType": "bool",
          "name": "",
          "type": "bool"
        }
      ],
      "payable": false,
      "stateMutability": "view",
      "type": "function"
    },
    {
      "constant": false,
      "inputs": [
        {
          "internalType": "address",
          "name": "_from",
          "type": "address"
        },
        {
          "internalType": "address",
          "name": "_to",
          "type": "address"
        },
        {
          "internalType": "uint256",
          "name": "_tokenId",
          "type": "uint256"
        }
      ],
      "name": "transferFrom",
      "outputs": [],
      "payable": false,
      "stateMutability": "nonpayable",
      "type": "function"
    },
    {
      "constant": false,
      "inputs": [
        {
          "internalType": "address",
          "name": "_from",
          "type": "address"
        },
        {
          "internalType": "address",
          "name": "_to",
          "type": "address"
        },
        {
          "internalType": "uint256",
          "name": "_tokenId",
          "type": "uint256"
        }
      ],
      "name": "safeTransferFrom",
      "outputs": [],
      "payable": false,
      "stateMutability": "nonpayable",
      "type": "function"
    },
    {
      "constant": false,
      "inputs": [
        {
          "internalType": "address",
          "name": "_from",
          "type": "address"
        },
        {
          "internalType": "address",
          "name": "_to",
          "type": "address"
        },
        {
          "internalType": "uint256",
          "name": "_tokenId",
          "type": "uint256"
        },
        {
          "internalType": "bytes",
          "name": "data",
          "type": "bytes"
        }
      ],
      "name": "safeTransferFrom",
      "outputs": [],
      "payable": false,
      "stateMutability": "nonpayable",
      "type": "function"
    }
  ],
  "bytecode": "0x608060405260006001553480156200001657600080fd5b50336000806101000a81548173ffffffffffffffffffffffffffffffffffffffff021916908373ffffffffffffffffffffffffffffffffffffffff1602179055506200008f60008060007fffffffffffffffffffffffffffffffffffffffffffffffffffffffffffffffff60006200009660201b60201c565b50620003e7565b6000620000a2620003b8565b6040518060a001604052808581526020014267ffffffffffffffff1681526020018863ffffffff1681526020018763ffffffff1681526020018661ffff1681525090506000600160028390806001815401808255809150509060018203906000526020600020906005020160009091929091909150600082015181600001556020820151816001015560408201518160020155606082015181600301556080820151816004015550500390507fa2950fd8c03e7518275ee57e05ca76c671969b5445b12b1aeea4b0b30195e5df84828a8a898b604051808773ffffffffffffffffffffffffffffffffffffffff1673ffffffffffffffffffffffffffffffffffffffff168152602001868152602001858152602001848152602001838152602001828152602001965050505050505060405180910390a1620001ed60008583620001fb60201b60201c565b809250505095945050505050565b816004600083815260200190815260200160002060006101000a81548173ffffffffffffffffffffffffffffffffffffffff021916908373ffffffffffffffffffffffffffffffffffffffff160217905550600073ffffffffffffffffffffffffffffffffffffffff168373ffffffffffffffffffffffffffffffffffffffff1614620002d357600360008473ffffffffffffffffffffffffffffffffffffffff1673ffffffffffffffffffffffffffffffffffffffff16815260200190815260200160002060008154809291906001900391905055505b600360008373ffffffffffffffffffffffffffffffffffffffff1673ffffffffffffffffffffffffffffffffffffffff168152602001908152602001600020600081548092919060010191905055506005600082815260200190815260200160002060006101000a81549073ffffffffffffffffffffffffffffffffffffffff0219169055808273ffffffffffffffffffffffffffffffffffffffff168473ffffffffffffffffffffffffffffffffffffffff167fddf252ad1be2c89b69c2b068fc378daa952ba7f163c4a11628f55a4df523b3ef60405160405180910390a4505050565b6040518060a0016040528060008152602001600081526020016000815260200160008152602001600081525090565b61241680620003f76000396000f3fe608060405234801561001057600080fd5b50600436106101585760003560e01c806364714e1a116100c3578063a9059cbb1161007c578063a9059cbb14610818578063b88d4fde14610866578063d5a776ca14610929578063d9ecad7b1461096b578063e985e9c5146109b7578063e98b7f4d14610a3357610158565b806364714e1a146105c95780636c02a931146105e757806370a082311461066a5780637b61c320146106c257806395d89b4114610745578063a22cb465146107c857610158565b80632b6eed11116101155780632b6eed111461038d57806330e0789e146103ab57806342842e0e14610419578063481af3d3146104875780635a8ad746146104f55780636352211e1461055b57610158565b806301ffc9a71461015d57806306fdde03146101c2578063081812fc14610245578063095ea7b3146102b357806318160ddd1461030157806323b872dd1461031f575b600080fd5b6101a86004803603602081101561017357600080fd5b8101908080357bffffffffffffffffffffffffffffffffffffffffffffffffffffffff19169060200190929190505050610a91565b604051808215151515815260200191505060405180910390f35b6101ca610b31565b6040518080602001828103825283818151815260200191508051906020019080838360005b8381101561020a5780820151818401526020810190506101ef565b50505050905090810190601f1680156102375780820380516001836020036101000a031916815260200191505b509250505060405180910390f35b6102716004803603602081101561025b57600080fd5b8101908080359060200190929190505050610b6e565b604051808273ffffffffffffffffffffffffffffffffffffffff1673ffffffffffffffffffffffffffffffffffffffff16815260200191505060405180910390f35b6102ff600480360360408110156102c957600080fd5b81019080803573ffffffffffffffffffffffffffffffffffffffff16906020019092919080359060200190929190505050610c26565b005b610309610cee565b6040518082815260200191505060405180910390f35b61038b6004803603606081101561033557600080fd5b81019080803573ffffffffffffffffffffffffffffffffffffffff169060200190929190803573ffffffffffffffffffffffffffffffffffffffff16906020019092919080359060200190929190505050610cfb565b005b610395610f77565b6040518082815260200191505060405180910390f35b610417600480360360608110156103c157600080fd5b81019080803573ffffffffffffffffffffffffffffffffffffffff169060200190929190803573ffffffffffffffffffffffffffffffffffffffff16906020019092919080359060200190929190505050610f7c565b005b6104856004803603606081101561042f57600080fd5b81019080803573ffffffffffffffffffffffffffffffffffffffff169060200190929190803573ffffffffffffffffffffffffffffffffffffffff16906020019092919080359060200190929190505050611138565b005b6104b36004803603602081101561049d57600080fd5b8101908080359060200190929190505050611148565b604051808273ffffffffffffffffffffffffffffffffffffffff1673ffffffffffffffffffffffffffffffffffffffff16815260200191505060405180910390f35b6105416004803603604081101561050b57600080fd5b81019080803573ffffffffffffffffffffffffffffffffffffffff1690602001909291908035906020019092919050505061117b565b604051808215151515815260200191505060405180910390f35b6105876004803603602081101561057157600080fd5b81019080803590602001909291905050506111e7565b604051808273ffffffffffffffffffffffffffffffffffffffff1673ffffffffffffffffffffffffffffffffffffffff16815260200191505060405180910390f35b6105d1611224565b6040518082815260200191505060405180910390f35b6105ef61122a565b6040518080602001828103825283818151815260200191508051906020019080838360005b8381101561062f578082015181840152602081019050610614565b50505050905090810190601f16801561065c5780820380516001836020036101000a031916815260200191505b509250505060405180910390f35b6106ac6004803603602081101561068057600080fd5b81019080803573ffffffffffffffffffffffffffffffffffffffff169060200190929190505050611263565b6040518082815260200191505060405180910390f35b6106ca6112ac565b6040518080602001828103825283818151815260200191508051906020019080838360005b8381101561070a5780820151818401526020810190506106ef565b50505050905090810190601f1680156107375780820380516001836020036101000a031916815260200191505b509250505060405180910390f35b61074d6112e5565b6040518080602001828103825283818151815260200191508051906020019080838360005b8381101561078d578082015181840152602081019050610772565b50505050905090810190601f1680156107ba5780820380516001836020036101000a031916815260200191505b509250505060405180910390f35b610816600480360360408110156107de57600080fd5b81019080803573ffffffffffffffffffffffffffffffffffffffff169060200190929190803515159060200190929190505050611322565b005b6108646004803603604081101561082e57600080fd5b81019080803573ffffffffffffffffffffffffffffffffffffffff16906020019092919080359060200190929190505050611631565b005b6109276004803603608081101561087c57600080fd5b81019080803573ffffffffffffffffffffffffffffffffffffffff169060200190929190803573ffffffffffffffffffffffffffffffffffffffff16906020019092919080359060200190929190803590602001906401000000008111156108e357600080fd5b8201836020820111156108f557600080fd5b8035906020019184600183028401116401000000008311171561091757600080fd5b90919293919293905050506117c7565b005b6109556004803603602081101561093f57600080fd5b810190808035906020019092919050505061198b565b6040518082815260200191505060405180910390f35b6109a16004803603604081101561098157600080fd5b810190808035906020019092919080359060200190929190505050611a48565b6040518082815260200191505060405180910390f35b610a19600480360360408110156109cd57600080fd5b81019080803573ffffffffffffffffffffffffffffffffffffffff169060200190929190803573ffffffffffffffffffffffffffffffffffffffff169060200190929190505050611c39565b604051808215151515815260200191505060405180910390f35b610a5f60048036036020811015610a4957600080fd5b8101908080359060200190929190505050611ccd565b604051808681526020018581526020018481526020018381526020018281526020019550505050505060405180910390f35b60006380ac58cd60e01b7bffffffffffffffffffffffffffffffffffffffffffffffffffffffff1916827bffffffffffffffffffffffffffffffffffffffffffffffffffffffff19161480610b2a57506301ffc9a760e01b7bffffffffffffffffffffffffffffffffffffffffffffffffffffffff1916827bffffffffffffffffffffffffffffffffffffffffffffffffffffffff1916145b9050919050565b60606040518060400160405280600b81526020017f52696b694b697474696573000000000000000000000000000000000000000000815250905090565b6000600280549050821015610beb576040517f08c379a00000000000000000000000000000000000000000000000000000000081526004018080602001828103825260188152602001807f54686973206973206e6f7420612076616c6964204e465421000000000000000081525060200191505060405180910390fd5b6005600083815260200190815260200160002060009054906101000a900473ffffffffffffffffffffffffffffffffffffffff169050919050565b610c30338261117b565b610c85576040517f08c379a00000000000000000000000000000000000000000000000000000000081526004018080602001828103825260328152602001806122866032913960400191505060405180910390fd5b610c8f8282611d83565b808273ffffffffffffffffffffffffffffffffffffffff163373ffffffffffffffffffffffffffffffffffffffff167f8c5be1e5ebec7d5bd14f71427d1e84f3dd0314c0f7b2291e5b200ac8c7c3b92560405160405180910390a45050565b6000600280549050905090565b610d058333611c39565b80610d6e57506005600082815260200190815260200160002060009054906101000a900473ffffffffffffffffffffffffffffffffffffffff1673ffffffffffffffffffffffffffffffffffffffff163373ffffffffffffffffffffffffffffffffffffffff16145b80610da457508273ffffffffffffffffffffffffffffffffffffffff163373ffffffffffffffffffffffffffffffffffffffff16145b610df9576040517f08c379a00000000000000000000000000000000000000000000000000000000081526004018080602001828103825260388152602001806123aa6038913960400191505060405180910390fd5b610e03838261117b565b610e58576040517f08c379a000000000000000000000000000000000000000000000000000000000815260040180806020018281038252602d81526020018061237d602d913960400191505060405180910390fd5b8173ffffffffffffffffffffffffffffffffffffffff16600073ffffffffffffffffffffffffffffffffffffffff161415610efb576040517f08c379a000000000000000000000000000000000000000000000000000000000815260040180806020018281038252601d8152602001807f72656365697665722063616e6e6f74206265203020616464726573732100000081525060200191505060405180910390fd5b6002805490508110610f0c57600080fd5b610f17838383610f7c565b808273ffffffffffffffffffffffffffffffffffffffff168473ffffffffffffffffffffffffffffffffffffffff167fddf252ad1be2c89b69c2b068fc378daa952ba7f163c4a11628f55a4df523b3ef60405160405180910390a4505050565b600a81565b816004600083815260200190815260200160002060006101000a81548173ffffffffffffffffffffffffffffffffffffffff021916908373ffffffffffffffffffffffffffffffffffffffff160217905550600073ffffffffffffffffffffffffffffffffffffffff168373ffffffffffffffffffffffffffffffffffffffff161461105357600360008473ffffffffffffffffffffffffffffffffffffffff1673ffffffffffffffffffffffffffffffffffffffff16815260200190815260200160002060008154809291906001900391905055505b600360008373ffffffffffffffffffffffffffffffffffffffff1673ffffffffffffffffffffffffffffffffffffffff168152602001908152602001600020600081548092919060010191905055506005600082815260200190815260200160002060006101000a81549073ffffffffffffffffffffffffffffffffffffffff0219169055808273ffffffffffffffffffffffffffffffffffffffff168473ffffffffffffffffffffffffffffffffffffffff167fddf252ad1be2c89b69c2b068fc378daa952ba7f163c4a11628f55a4df523b3ef60405160405180910390a4505050565b611143838383611138565b505050565b60056020528060005260406000206000915054906101000a900473ffffffffffffffffffffffffffffffffffffffff1681565b60008273ffffffffffffffffffffffffffffffffffffffff166004600084815260200190815260200160002060009054906101000a900473ffffffffffffffffffffffffffffffffffffffff1673ffffffffffffffffffffffffffffffffffffffff1614905092915050565b60006004600083815260200190815260200160002060009054906101000a900473ffffffffffffffffffffffffffffffffffffffff169050919050565b60015481565b6040518060400160405280600b81526020017f52696b694b69747469657300000000000000000000000000000000000000000081525081565b6000600360008373ffffffffffffffffffffffffffffffffffffffff1673ffffffffffffffffffffffffffffffffffffffff168152602001908152602001600020549050919050565b6040518060400160405280600281526020017f524b00000000000000000000000000000000000000000000000000000000000081525081565b60606040518060400160405280600281526020017f524b000000000000000000000000000000000000000000000000000000000000815250905090565b3373ffffffffffffffffffffffffffffffffffffffff16600073ffffffffffffffffffffffffffffffffffffffff1614156113c5576040517f08c379a000000000000000000000000000000000000000000000000000000000815260040180806020018281038252601b8152602001807f73656e64657220616464726573732063616e6e6f74206265203021000000000081525060200191505060405180910390fd5b60001515600660003373ffffffffffffffffffffffffffffffffffffffff1673ffffffffffffffffffffffffffffffffffffffff16815260200190815260200160002060008473ffffffffffffffffffffffffffffffffffffffff1673ffffffffffffffffffffffffffffffffffffffff16815260200190815260200160002060009054906101000a900460ff161515146114ab576040517f08c379a00000000000000000000000000000000000000000000000000000000081526004018080602001828103825260238152602001806122636023913960400191505060405180910390fd5b3373ffffffffffffffffffffffffffffffffffffffff168273ffffffffffffffffffffffffffffffffffffffff161415611530576040517f08c379a00000000000000000000000000000000000000000000000000000000081526004018080602001828103825260328152602001806123266032913960400191505060405180910390fd5b80600660003373ffffffffffffffffffffffffffffffffffffffff1673ffffffffffffffffffffffffffffffffffffffff16815260200190815260200160002060008473ffffffffffffffffffffffffffffffffffffffff1673ffffffffffffffffffffffffffffffffffffffff16815260200190815260200160002060006101000a81548160ff0219169083151502179055508173ffffffffffffffffffffffffffffffffffffffff163373ffffffffffffffffffffffffffffffffffffffff167f642794df1bc2a1f4cd7b38a2493233dde0490fb4a180cda6dc439f6889e100b583604051808215151515815260200191505060405180910390a35050565b8173ffffffffffffffffffffffffffffffffffffffff163373ffffffffffffffffffffffffffffffffffffffff1614156116b6576040517f08c379a00000000000000000000000000000000000000000000000000000000081526004018080602001828103825260268152602001806122b86026913960400191505060405180910390fd5b600073ffffffffffffffffffffffffffffffffffffffff163373ffffffffffffffffffffffffffffffffffffffff161415611759576040517f08c379a000000000000000000000000000000000000000000000000000000000815260040180806020018281038252601b8152602001807f73656e64657220616464726573732063616e6e6f74206265203021000000000081525060200191505060405180910390fd5b611763338261117b565b6117b8576040517f08c379a00000000000000000000000000000000000000000000000000000000081526004018080602001828103825260248152602001806122de6024913960400191505060405180910390fd5b6117c3338383610f7c565b5050565b6117d1858461117b565b611826576040517f08c379a00000000000000000000000000000000000000000000000000000000081526004018080602001828103825260248152602001806123026024913960400191505060405180910390fd5b6118308533611c39565b8061184157506118403384611dd9565b5b8061187757508473ffffffffffffffffffffffffffffffffffffffff163373ffffffffffffffffffffffffffffffffffffffff16145b61188057600080fd5b8373ffffffffffffffffffffffffffffffffffffffff16600073ffffffffffffffffffffffffffffffffffffffff161415611923576040517f08c379a000000000000000000000000000000000000000000000000000000000815260040180806020018281038252601d8152602001807f72656365697665722063616e6e6f74206265203020616464726573732100000081525060200191505060405180910390fd5b600280549050831061193457600080fd5b61198485858585858080601f016020809104026020016040519081016040528093929190818152602001838380828437600081840152601f19601f82011690508083019250505050505050611e45565b5050505050565b60003373ffffffffffffffffffffffffffffffffffffffff166000809054906101000a900473ffffffffffffffffffffffffffffffffffffffff1673ffffffffffffffffffffffffffffffffffffffff1614611a32576040517f08c379a00000000000000000000000000000000000000000000000000000000081526004018080602001828103825260258152602001806123586025913960400191505060405180910390fd5b611a4160008060008533611e6b565b9050919050565b6000611a54338461117b565b611a5d57600080fd5b611a67338361117b565b611a7057600080fd5b6000611ab860028581548110611a8257fe5b90600052602060002090600502016000015460028581548110611aa157fe5b906000526020600020906005020160000154611fc6565b905060008060028581548110611aca57fe5b90600052602060002090600502016004015460028781548110611ae957fe5b906000526020600020906005020160040154011415611b0b5760019050611c23565b60028481548110611b1857fe5b90600052602060002090600502016004015460028681548110611b3757fe5b9060005260206000209060050201600401541115611b755760028581548110611b5c57fe5b9060005260206000209060050201600401549050611c22565b60028481548110611b8257fe5b90600052602060002090600502016004015460028681548110611ba157fe5b9060005260206000209060050201600401541015611bdf5760028481548110611bc657fe5b9060005260206000209060050201600401549050611c21565b60028481548110611bec57fe5b90600052602060002090600502016004015460028681548110611c0b57fe5b9060005260206000209060050201600401540190505b5b5b611c308486838533611e6b565b50505092915050565b6000600660008473ffffffffffffffffffffffffffffffffffffffff1673ffffffffffffffffffffffffffffffffffffffff16815260200190815260200160002060008373ffffffffffffffffffffffffffffffffffffffff1673ffffffffffffffffffffffffffffffffffffffff16815260200190815260200160002060009054906101000a900460ff16905092915050565b600080600080600060028681548110611ce257fe5b90600052602060002090600502016000015460028781548110611d0157fe5b90600052602060002090600502016001015460028881548110611d2057fe5b90600052602060002090600502016002015460028981548110611d3f57fe5b90600052602060002090600502016003015460028a81548110611d5e57fe5b9060005260206000209060050201600401549450945094509450945091939590929450565b816005600083815260200190815260200160002060006101000a81548173ffffffffffffffffffffffffffffffffffffffff021916908373ffffffffffffffffffffffffffffffffffffffff1602179055505050565b60008273ffffffffffffffffffffffffffffffffffffffff166005600084815260200190815260200160002060009054906101000a900473ffffffffffffffffffffffffffffffffffffffff1673ffffffffffffffffffffffffffffffffffffffff1614905092915050565b611e50848484610f7c565b611e5c84848484612007565b611e6557600080fd5b50505050565b6000611e75612204565b6040518060a001604052808581526020014267ffffffffffffffff1681526020018863ffffffff1681526020018763ffffffff1681526020018661ffff1681525090506000600160028390806001815401808255809150509060018203906000526020600020906005020160009091929091909150600082015181600001556020820151816001015560408201518160020155606082015181600301556080820151816004015550500390507fa2950fd8c03e7518275ee57e05ca76c671969b5445b12b1aeea4b0b30195e5df84828a8a898b604051808773ffffffffffffffffffffffffffffffffffffffff1673ffffffffffffffffffffffffffffffffffffffff168152602001868152602001858152602001848152602001838152602001828152602001965050505050505060405180910390a1611fb860008583610f7c565b809250505095945050505050565b6000806305f5e1008481611fd657fe5b04905060006305f5e1008481611fe857fe5b06905060006305f5e10083029050818101905080935050505092915050565b6000612012846121eb565b61201f57600190506121e3565b60008473ffffffffffffffffffffffffffffffffffffffff1663150b7a02338887876040518563ffffffff1660e01b8152600401808573ffffffffffffffffffffffffffffffffffffffff1673ffffffffffffffffffffffffffffffffffffffff1681526020018473ffffffffffffffffffffffffffffffffffffffff1673ffffffffffffffffffffffffffffffffffffffff16815260200183815260200180602001828103825283818151815260200191508051906020019080838360005b838110156120fa5780820151818401526020810190506120df565b50505050905090810190601f1680156121275780820380516001836020036101000a031916815260200191505b5095505050505050602060405180830381600087803b15801561214957600080fd5b505af115801561215d573d6000803e3d6000fd5b505050506040513d602081101561217357600080fd5b810190808051906020019092919050505090506040518080612234602f9139602f01905060405180910390207bffffffffffffffffffffffffffffffffffffffffffffffffffffffff1916817bffffffffffffffffffffffffffffffffffffffffffffffffffffffff1916149150505b949350505050565b600080823b905060008163ffffffff1611915050919050565b6040518060a001604052806000815260200160008152602001600081526020016000815260200160008152509056fe6f6e455243373231526563656976656428616464726573732c616464726573732c75696e743235362c62797465732954686973206f70657261746f7220616c726561647920676f7420617070726f76616c21596f75206e65656420746f206f776e207468697320746f6b656e20696e206f7264657220746f20617070726f766520697421796f752063616e6e6f742073656e64206120746f6b656e496420746f20796f757273656c6621596f7520617265206e6f7420746865206f776e6572206f66207468697320746f6b656e216d73672e73656e646572206973206e6f74207468652063757272656e74206f776e6572214f70657261746f72206163636f756e742063616e6e6f74206265207468652073616d65206173206d73672e73656e6465722154686973206973206f6e6c792065786563757461626c6520627920746865206f776e6572214f776e65722061646472657373206973206e6f7420636f6e6e656374656420746f207468697320746f6b656e214f6e6c79204f776e65722c204f70657261746f72206f7220417070726f766564204164647265737365732063616e207472616e7366657221a265627a7a72315820e365e4b4c7d398beb0a3769535870f66fecaae0893d6db417cb530e0126924c564736f6c63430005110032",
  "source": "//SPDX-License-Identifier: MIT\n\npragma solidity ^0.5.12;\n\nimport \"./IERC721.sol\";\nimport \"./Ownable.sol\";\nimport \"./IERC721Receiver.sol\";\n\ncontract Kittycontract is IERC721, Ownable {\n\n\n    string public constant tokenName = \"RikiKitties\";\n    string public constant tokenSymbol = \"RK\";\n    bytes4 internal constant MAGIC_ERC721_RECEIVED = bytes4(keccak256(\"onERC721Received(address,address,uint256,bytes)\"));\n    uint256 public constant Creation_Limit_Gen = 10;\n    uint256 public gencounter = 0;\n    bytes4 private constant _INTERFACE_ID_ERC721 = 0x80ac58cd;\n    bytes4 private constant _INTERFACE_ID_ERC165 = 0x01ffc9a7;\n\n\n    event Birth(\n        address owner, \n        uint256 kittenId, \n        uint256 mumId, \n        uint256 dadId, \n        uint256 genes,\n        uint256 generation);\n    \n    event approvalForAll(address indexed owner, address indexed operator, bool approved);\n    event Approval(address indexed owner, address indexed approved, uint256 indexed tokenId);\n\n    struct Kitty {\n        uint256 genes;\n        uint256 birthTime;\n        uint256 mumId;\n        uint256 dadId;\n        uint256 generation;\n    }\n\n    Kitty [] kitties;\n\n    mapping(address => uint256) ownershipTokenCount; // how many token this address has\n    mapping(uint256 => address) ownerOfToken; // who owns this token\n    mapping(uint256 => address) public kittyIndexToApproved; // Who has ownership of the given token\n    mapping(address => mapping(address => bool)) private _operatorApprovals; // MYADDR => OPERATORADDR => True/False\n\n\n    constructor() public {\n        _createKitty(0, 0, 0, uint256(-1), address(0));\n    }\n\n    function breed(uint256 _dadId, uint256 _mumId) public returns (uint256){\n        require(_own(msg.sender, _dadId));\n        require(_own(msg.sender, _mumId));\n        //You got the DNA\n        uint256 newGenes = _mixDna(kitties[_dadId].genes, kitties[_mumId].genes);\n\n        uint256 newGeneration;\n        //Figure out the Generation\n        if(kitties[_dadId].generation + kitties[_mumId].generation == 0){\n            newGeneration = 1;\n        }\n        else if(kitties[_dadId].generation > kitties[_mumId].generation ){\n            newGeneration = kitties[_dadId].generation;\n        }\n\n        else if(kitties[_dadId].generation < kitties[_mumId].generation){\n            newGeneration = kitties[_mumId].generation;\n        }\n\n        else {\n            newGeneration = kitties[_dadId].generation + kitties[_mumId].generation;\n        }\n\n        //Create a new cat with the new properties, give it to the msg.sender\n        _createKitty(_mumId, _dadId, newGeneration, newGenes, msg.sender);\n    }\n    \n\n    function supportsInterface(bytes4 _interfaceId) public view returns (bool){\n        return (_interfaceId == _INTERFACE_ID_ERC721 || _interfaceId == _INTERFACE_ID_ERC165);\n    }\n\n    function createKittyGen0(uint256 _genes) public onlyOwner returns(uint256){\n        //require(gencounter < Creation_Limit_Gen);\n\n        //gencounter++;\n        \n        return _createKitty(0,0,0,_genes,msg.sender);\n\n    }\n\n    function getKitty(uint256 _id\n    ) public view returns(\n        uint256 genes,\n        uint256 birthTime,\n        uint256 mumId,\n        uint256 dadId,\n        uint256 generation\n    ){\n        return \n       (kitties[_id].genes,\n        kitties[_id].birthTime,\n        kitties[_id].mumId,\n        kitties[_id].dadId,\n        kitties[_id].generation);\n       /* Kitty storage kitty = kitties[_id];\n\n        birthTime = uint256(kitty.birthTime);\n        mumId = uint256(kitty.mumId);\n        dadId = uint256(kitty.dadId);\n        generation = uint256(kitty.generation);\n        genes = uint256(kitty.genes);*/\n    }\n\n    function _createKitty(\n        uint256 _mumId,\n        uint256 _dadId,\n        uint256 _generation,\n        uint256 _genes,\n        address owner\n    ) private returns(uint256){\n        Kitty memory _kitty = Kitty({\n            genes: _genes,\n            birthTime: uint64(block.timestamp),\n            mumId: uint32(_mumId),\n            dadId: uint32(_dadId),\n            generation: uint16(_generation)\n        });\n        uint newKittenId = kitties.push(_kitty) - 1;\n\n        emit Birth(owner, newKittenId, _mumId, _dadId, _genes, _generation);\n\n       _transfer(address(0), owner, newKittenId);\n\n\n       return newKittenId;\n    }\n\n    function balanceOf(address owner) external view returns (uint256){\n        return ownershipTokenCount[owner];\n    }\n\n    function totalSupply()  external view returns (uint256){\n        return kitties.length;\n    }\n\n    function name() external  view returns (string memory){\n        return tokenName;\n    }\n\n    function symbol() external  view returns (string memory){\n        return tokenSymbol;\n    }\n\n    function ownerOf(uint256 tokenId) external  view returns (address){\n        return ownerOfToken[tokenId];\n    }\n\n    function transfer(address to, uint256 tokenId) external  {\n        require(msg.sender != to, \"you cannot send a tokenId to yourself!\");\n        require(msg.sender != address(0),\"sender address cannot be 0!\");\n        require(_own(msg.sender, tokenId), \"You are not the owner of this token!\");\n        \n        _transfer(msg.sender, to, tokenId);       \n    }\n\n    function _own(address _claimant, uint256 _tokenId) public view returns(bool){\n        return ownerOfToken[_tokenId] == _claimant;\n       // if(ownerOfToken[_tokenId] == _claimant)\n       // return true;      \n    }\n\n    function _transfer(address from, address to, uint _tokenId) public{\n\n        ownerOfToken[_tokenId] = to;\n\n        if(from != address(0)){\n            ownershipTokenCount[from]--;\n        }      \n        ownershipTokenCount[to]++;\n        delete kittyIndexToApproved[_tokenId];\n\n        emit Transfer(from, to, _tokenId);\n    }\n\n    function approve (address _approved, uint256 _tokenId) external {\n        require(_own(msg.sender, _tokenId), \"You need to own this token in order to approve it!\");\n\n        _approve(_approved, _tokenId);\n        emit Approval(msg.sender, _approved, _tokenId);\n    }\n\n    function setApprovalForAll(address _operator, bool _approved) external{\n        require(address(0)!= msg.sender, \"sender address cannot be 0!\");\n        require(_operatorApprovals[msg.sender][_operator] == false, \"This operator already got approval!\");\n        require(_operator != msg.sender ,\"Operator account cannot be the same as msg.sender!\");\n\n        _operatorApprovals[msg.sender][_operator] = _approved;\n\n        emit approvalForAll(msg.sender, _operator, _approved);\n    }\n\n    function getApproved(uint256 _tokenId) external view returns(address){\n        require(_tokenId >= kitties.length, \"This is not a valid NFT!\");\n\n        return kittyIndexToApproved[_tokenId];\n    }\n\n    function isApprovedForAll(address _owner, address _operator) public view returns(bool){\n        return _operatorApprovals[_owner][_operator];\n    }\n\n    function _approve(address _approved, uint256 _tokenId) internal {\n        kittyIndexToApproved[_tokenId] = _approved;\n    }\n\n    function transferFrom(address _from, address _to, uint256 _tokenId) public{\n        require(isApprovedForAll(_from, msg.sender) || msg.sender == kittyIndexToApproved[_tokenId]  || msg.sender == _from, \"Only Owner, Operator or Approved Addresses can transfer!\");\n        require(_own(_from, _tokenId), \"Owner address is not connected to this token!\");\n        require(address(0)!= _to, \"receiver cannot be 0 address!\");\n        require(_tokenId < kitties.length);\n\n        _transfer(_from, _to, _tokenId);\n\n        emit Transfer(_from, _to, _tokenId);\n\n    }\n\n    function _approvedFor(address _claimant, uint256 _tokenId) internal view returns (bool){\n        return kittyIndexToApproved[_tokenId] == _claimant;\n    }\n    function _checkERC721Support(address _from, address _to, uint256 _tokenId, bytes memory _data)internal returns (bool){\n        if(!_isContract(_to) ){\n            return true;\n        }\n        //Call onERC721Received in the _to contract\n        bytes4 returnData = IERC721Receiver(_to).onERC721Received(msg.sender, _from, _tokenId, _data);\n        return returnData == MAGIC_ERC721_RECEIVED;\n\n        //Check return value\n    }\n    function _isContract(address _to) view internal returns (bool){\n        uint32 size;\n        assembly{\n            size := extcodesize(_to)\n        }\n        return size > 0;\n    }\n    \n    function _safeTransfer(address _from, address _to, uint256 _tokenId, bytes memory _data) internal{\n        _transfer(_from, _to, _tokenId);\n        require(_checkERC721Support(_from, _to, _tokenId, _data) );\n    }\n    function safeTransferFrom(address _from, address _to, uint256 _tokenId, bytes calldata data) external {\n        require(_own(_from, _tokenId), \"msg.sender is not the current owner!\");\n        require(isApprovedForAll(_from, msg.sender) || _approvedFor(msg.sender, _tokenId)  || msg.sender == _from);\n        require(address(0)!= _to, \"receiver cannot be 0 address!\");\n        require(_tokenId < kitties.length);\n\n        _safeTransfer(_from, _to, _tokenId, data);\n    }\n    function safeTransferFrom(address _from, address _to, uint256 _tokenId) public{\n        safeTransferFrom(_from, _to, _tokenId);\n    }\n\n    function _mixDna(uint256 _dadDna, uint256 _mumDna) internal returns (uint256){\n        // dadDna:11 22 33 44 55 66 77 88\n        // mumDna:88 77 66 55 44 33 22 11\n\n        uint256 firstHalf = _dadDna / 100000000; //11223344 \n        uint256 secondHalf = _mumDna % 100000000; // 44332211\n\n        uint newDna = firstHalf * 100000000;\n        newDna = newDna + secondHalf; // 1122334444332211\n        return newDna;\n\n        // \n\n        //10 + 20\n        // 10 * 100 = 1000\n        // 1000 + 20 = 1020\n\n    }\n}\n",
  "sourcePath": "C:\\Users\\Riki\\Desktop\\Solidity\\CryptoKitties-main\\contracts\\Kittycontract.sol",
  "compiler": {
    "name": "solc",
    "version": "0.5.17+commit.d19bba13.Emscripten.clang"
  },
  "schemaVersion": "3.3.4",
  "updatedAt": "2022-02-12T16:41:59.474Z",
  "networkType": "ethereum",
  "devdoc": {
    "methods": {}
  },
  "userdoc": {
    "methods": {}
  }
}