{
  "contractName": "Kittycontract",
  "abi": [
    {
      "anonymous": false,
      "inputs": [
        {
          "indexed": true,
          "internalType": "address",
          "name": "owner",
          "type": "address"
        },
        {
          "indexed": true,
          "internalType": "address",
          "name": "approved",
          "type": "address"
        },
        {
          "indexed": true,
          "internalType": "uint256",
          "name": "tokenId",
          "type": "uint256"
        }
      ],
      "name": "Approval",
      "type": "event"
    },
    {
      "anonymous": false,
      "inputs": [
        {
          "indexed": true,
          "internalType": "address",
          "name": "owner",
          "type": "address"
        },
        {
          "indexed": true,
          "internalType": "address",
          "name": "operator",
          "type": "address"
        },
        {
          "indexed": false,
          "internalType": "bool",
          "name": "approved",
          "type": "bool"
        }
      ],
      "name": "ApprovalForAll",
      "type": "event"
    },
    {
      "anonymous": false,
      "inputs": [
        {
          "indexed": false,
          "internalType": "address",
          "name": "owner",
          "type": "address"
        },
        {
          "indexed": false,
          "internalType": "uint256",
          "name": "kittenId",
          "type": "uint256"
        },
        {
          "indexed": false,
          "internalType": "uint256",
          "name": "mumId",
          "type": "uint256"
        },
        {
          "indexed": false,
          "internalType": "uint256",
          "name": "dadId",
          "type": "uint256"
        },
        {
          "indexed": false,
          "internalType": "uint256",
          "name": "genes",
          "type": "uint256"
        }
      ],
      "name": "Birth",
      "type": "event"
    },
    {
      "anonymous": false,
      "inputs": [
        {
          "indexed": true,
          "internalType": "address",
          "name": "from",
          "type": "address"
        },
        {
          "indexed": true,
          "internalType": "address",
          "name": "to",
          "type": "address"
        },
        {
          "indexed": true,
          "internalType": "uint256",
          "name": "tokenId",
          "type": "uint256"
        }
      ],
      "name": "Transfer",
      "type": "event"
    },
    {
      "anonymous": false,
      "inputs": [
        {
          "indexed": true,
          "internalType": "address",
          "name": "owner",
          "type": "address"
        },
        {
          "indexed": true,
          "internalType": "address",
          "name": "operator",
          "type": "address"
        },
        {
          "indexed": false,
          "internalType": "bool",
          "name": "approved",
          "type": "bool"
        }
      ],
      "name": "approvalForAll",
      "type": "event"
    },
    {
      "constant": true,
      "inputs": [],
      "name": "Creation_Limit_Gen",
      "outputs": [
        {
          "internalType": "uint256",
          "name": "",
          "type": "uint256"
        }
      ],
      "payable": false,
      "stateMutability": "view",
      "type": "function"
    },
    {
      "constant": true,
      "inputs": [],
      "name": "gencounter",
      "outputs": [
        {
          "internalType": "uint256",
          "name": "",
          "type": "uint256"
        }
      ],
      "payable": false,
      "stateMutability": "view",
      "type": "function"
    },
    {
      "constant": true,
      "inputs": [
        {
          "internalType": "uint256",
          "name": "",
          "type": "uint256"
        }
      ],
      "name": "kittyIndexToApproved",
      "outputs": [
        {
          "internalType": "address",
          "name": "",
          "type": "address"
        }
      ],
      "payable": false,
      "stateMutability": "view",
      "type": "function"
    },
    {
      "constant": true,
      "inputs": [],
      "name": "tokenName",
      "outputs": [
        {
          "internalType": "string",
          "name": "",
          "type": "string"
        }
      ],
      "payable": false,
      "stateMutability": "view",
      "type": "function"
    },
    {
      "constant": true,
      "inputs": [],
      "name": "tokenSymbol",
      "outputs": [
        {
          "internalType": "string",
          "name": "",
          "type": "string"
        }
      ],
      "payable": false,
      "stateMutability": "view",
      "type": "function"
    },
    {
      "constant": true,
      "inputs": [
        {
          "internalType": "bytes4",
          "name": "_interfaceId",
          "type": "bytes4"
        }
      ],
      "name": "supportsInterface",
      "outputs": [
        {
          "internalType": "bool",
          "name": "",
          "type": "bool"
        }
      ],
      "payable": false,
      "stateMutability": "view",
      "type": "function"
    },
    {
      "constant": false,
      "inputs": [
        {
          "internalType": "uint256",
          "name": "_genes",
          "type": "uint256"
        }
      ],
      "name": "createKittyGen0",
      "outputs": [
        {
          "internalType": "uint256",
          "name": "",
          "type": "uint256"
        }
      ],
      "payable": false,
      "stateMutability": "nonpayable",
      "type": "function"
    },
    {
      "constant": true,
      "inputs": [
        {
          "internalType": "uint256",
          "name": "_id",
          "type": "uint256"
        }
      ],
      "name": "getKitty",
      "outputs": [
        {
          "internalType": "uint256",
          "name": "genes",
          "type": "uint256"
        },
        {
          "internalType": "uint256",
          "name": "birthTime",
          "type": "uint256"
        },
        {
          "internalType": "uint256",
          "name": "mumId",
          "type": "uint256"
        },
        {
          "internalType": "uint256",
          "name": "dadId",
          "type": "uint256"
        },
        {
          "internalType": "uint256",
          "name": "generation",
          "type": "uint256"
        }
      ],
      "payable": false,
      "stateMutability": "view",
      "type": "function"
    },
    {
      "constant": true,
      "inputs": [
        {
          "internalType": "address",
          "name": "owner",
          "type": "address"
        }
      ],
      "name": "balanceOf",
      "outputs": [
        {
          "internalType": "uint256",
          "name": "",
          "type": "uint256"
        }
      ],
      "payable": false,
      "stateMutability": "view",
      "type": "function"
    },
    {
      "constant": true,
      "inputs": [],
      "name": "totalSupply",
      "outputs": [
        {
          "internalType": "uint256",
          "name": "",
          "type": "uint256"
        }
      ],
      "payable": false,
      "stateMutability": "view",
      "type": "function"
    },
    {
      "constant": true,
      "inputs": [],
      "name": "name",
      "outputs": [
        {
          "internalType": "string",
          "name": "",
          "type": "string"
        }
      ],
      "payable": false,
      "stateMutability": "view",
      "type": "function"
    },
    {
      "constant": true,
      "inputs": [],
      "name": "symbol",
      "outputs": [
        {
          "internalType": "string",
          "name": "",
          "type": "string"
        }
      ],
      "payable": false,
      "stateMutability": "view",
      "type": "function"
    },
    {
      "constant": true,
      "inputs": [
        {
          "internalType": "uint256",
          "name": "tokenId",
          "type": "uint256"
        }
      ],
      "name": "ownerOf",
      "outputs": [
        {
          "internalType": "address",
          "name": "",
          "type": "address"
        }
      ],
      "payable": false,
      "stateMutability": "view",
      "type": "function"
    },
    {
      "constant": false,
      "inputs": [
        {
          "internalType": "address",
          "name": "to",
          "type": "address"
        },
        {
          "internalType": "uint256",
          "name": "tokenId",
          "type": "uint256"
        }
      ],
      "name": "transfer",
      "outputs": [],
      "payable": false,
      "stateMutability": "nonpayable",
      "type": "function"
    },
    {
      "constant": true,
      "inputs": [
        {
          "internalType": "address",
          "name": "_claimant",
          "type": "address"
        },
        {
          "internalType": "uint256",
          "name": "_tokenId",
          "type": "uint256"
        }
      ],
      "name": "_own",
      "outputs": [
        {
          "internalType": "bool",
          "name": "",
          "type": "bool"
        }
      ],
      "payable": false,
      "stateMutability": "view",
      "type": "function"
    },
    {
      "constant": false,
      "inputs": [
        {
          "internalType": "address",
          "name": "_approved",
          "type": "address"
        },
        {
          "internalType": "uint256",
          "name": "_tokenId",
          "type": "uint256"
        }
      ],
      "name": "approve",
      "outputs": [],
      "payable": false,
      "stateMutability": "nonpayable",
      "type": "function"
    },
    {
      "constant": false,
      "inputs": [
        {
          "internalType": "address",
          "name": "_operator",
          "type": "address"
        },
        {
          "internalType": "bool",
          "name": "_approved",
          "type": "bool"
        }
      ],
      "name": "setApprovalForAll",
      "outputs": [],
      "payable": false,
      "stateMutability": "nonpayable",
      "type": "function"
    },
    {
      "constant": true,
      "inputs": [
        {
          "internalType": "uint256",
          "name": "_tokenId",
          "type": "uint256"
        }
      ],
      "name": "getApproved",
      "outputs": [
        {
          "internalType": "address",
          "name": "",
          "type": "address"
        }
      ],
      "payable": false,
      "stateMutability": "view",
      "type": "function"
    },
    {
      "constant": true,
      "inputs": [
        {
          "internalType": "address",
          "name": "_owner",
          "type": "address"
        },
        {
          "internalType": "address",
          "name": "_operator",
          "type": "address"
        }
      ],
      "name": "isApprovedForAll",
      "outputs": [
        {
          "internalType": "bool",
          "name": "",
          "type": "bool"
        }
      ],
      "payable": false,
      "stateMutability": "view",
      "type": "function"
    },
    {
      "constant": false,
      "inputs": [
        {
          "internalType": "address",
          "name": "_from",
          "type": "address"
        },
        {
          "internalType": "address",
          "name": "_to",
          "type": "address"
        },
        {
          "internalType": "uint256",
          "name": "_tokenId",
          "type": "uint256"
        }
      ],
      "name": "transferFrom",
      "outputs": [],
      "payable": false,
      "stateMutability": "nonpayable",
      "type": "function"
    },
    {
      "constant": false,
      "inputs": [
        {
          "internalType": "address",
          "name": "_from",
          "type": "address"
        },
        {
          "internalType": "address",
          "name": "_to",
          "type": "address"
        },
        {
          "internalType": "uint256",
          "name": "_tokenId",
          "type": "uint256"
        }
      ],
      "name": "safeTransferFrom",
      "outputs": [],
      "payable": false,
      "stateMutability": "nonpayable",
      "type": "function"
    },
    {
      "constant": false,
      "inputs": [
        {
          "internalType": "address",
          "name": "_from",
          "type": "address"
        },
        {
          "internalType": "address",
          "name": "_to",
          "type": "address"
        },
        {
          "internalType": "uint256",
          "name": "_tokenId",
          "type": "uint256"
        },
        {
          "internalType": "bytes",
          "name": "data",
          "type": "bytes"
        }
      ],
      "name": "safeTransferFrom",
      "outputs": [],
      "payable": false,
      "stateMutability": "nonpayable",
      "type": "function"
    }
  ],
  "bytecode": "0x60806040526000600155336000806101000a81548173ffffffffffffffffffffffffffffffffffffffff021916908373ffffffffffffffffffffffffffffffffffffffff16021790555061209b806100586000396000f3fe608060405234801561001057600080fd5b50600436106101425760003560e01c806364714e1a116100b8578063a22cb4651161007c578063a22cb46514610744578063a9059cbb14610794578063b88d4fde146107e2578063d5a776ca146108a5578063e985e9c5146108e7578063e98b7f4d1461096357610142565b806364714e1a146105455780636c02a9311461056357806370a08231146105e65780637b61c3201461063e57806395d89b41146106c157610142565b806323b872dd1161010a57806323b872dd146103095780632b6eed111461037757806342842e0e14610395578063481af3d3146104035780635a8ad746146104715780636352211e146104d757610142565b806301ffc9a71461014757806306fdde03146101ac578063081812fc1461022f578063095ea7b31461029d57806318160ddd146102eb575b600080fd5b6101926004803603602081101561015d57600080fd5b8101908080357bffffffffffffffffffffffffffffffffffffffffffffffffffffffff191690602001909291905050506109c1565b604051808215151515815260200191505060405180910390f35b6101b4610a61565b6040518080602001828103825283818151815260200191508051906020019080838360005b838110156101f45780820151818401526020810190506101d9565b50505050905090810190601f1680156102215780820380516001836020036101000a031916815260200191505b509250505060405180910390f35b61025b6004803603602081101561024557600080fd5b8101908080359060200190929190505050610a9e565b604051808273ffffffffffffffffffffffffffffffffffffffff1673ffffffffffffffffffffffffffffffffffffffff16815260200191505060405180910390f35b6102e9600480360360408110156102b357600080fd5b81019080803573ffffffffffffffffffffffffffffffffffffffff16906020019092919080359060200190929190505050610b56565b005b6102f3610c1e565b6040518082815260200191505060405180910390f35b6103756004803603606081101561031f57600080fd5b81019080803573ffffffffffffffffffffffffffffffffffffffff169060200190929190803573ffffffffffffffffffffffffffffffffffffffff16906020019092919080359060200190929190505050610c2b565b005b61037f610e03565b6040518082815260200191505060405180910390f35b610401600480360360608110156103ab57600080fd5b81019080803573ffffffffffffffffffffffffffffffffffffffff169060200190929190803573ffffffffffffffffffffffffffffffffffffffff16906020019092919080359060200190929190505050610e08565b005b61042f6004803603602081101561041957600080fd5b8101908080359060200190929190505050610e18565b604051808273ffffffffffffffffffffffffffffffffffffffff1673ffffffffffffffffffffffffffffffffffffffff16815260200191505060405180910390f35b6104bd6004803603604081101561048757600080fd5b81019080803573ffffffffffffffffffffffffffffffffffffffff16906020019092919080359060200190929190505050610e4b565b604051808215151515815260200191505060405180910390f35b610503600480360360208110156104ed57600080fd5b8101908080359060200190929190505050610ec4565b604051808273ffffffffffffffffffffffffffffffffffffffff1673ffffffffffffffffffffffffffffffffffffffff16815260200191505060405180910390f35b61054d610f01565b6040518082815260200191505060405180910390f35b61056b610f07565b6040518080602001828103825283818151815260200191508051906020019080838360005b838110156105ab578082015181840152602081019050610590565b50505050905090810190601f1680156105d85780820380516001836020036101000a031916815260200191505b509250505060405180910390f35b610628600480360360208110156105fc57600080fd5b81019080803573ffffffffffffffffffffffffffffffffffffffff169060200190929190505050610f40565b6040518082815260200191505060405180910390f35b610646610f89565b6040518080602001828103825283818151815260200191508051906020019080838360005b8381101561068657808201518184015260208101905061066b565b50505050905090810190601f1680156106b35780820380516001836020036101000a031916815260200191505b509250505060405180910390f35b6106c9610fc2565b6040518080602001828103825283818151815260200191508051906020019080838360005b838110156107095780820151818401526020810190506106ee565b50505050905090810190601f1680156107365780820380516001836020036101000a031916815260200191505b509250505060405180910390f35b6107926004803603604081101561075a57600080fd5b81019080803573ffffffffffffffffffffffffffffffffffffffff169060200190929190803515159060200190929190505050610fff565b005b6107e0600480360360408110156107aa57600080fd5b81019080803573ffffffffffffffffffffffffffffffffffffffff1690602001909291908035906020019092919050505061130e565b005b6108a3600480360360808110156107f857600080fd5b81019080803573ffffffffffffffffffffffffffffffffffffffff169060200190929190803573ffffffffffffffffffffffffffffffffffffffff169060200190929190803590602001909291908035906020019064010000000081111561085f57600080fd5b82018360208201111561087157600080fd5b8035906020019184600183028401116401000000008311171561089357600080fd5b90919293919293905050506114a4565b005b6108d1600480360360208110156108bb57600080fd5b8101908080359060200190929190505050611668565b6040518082815260200191505060405180910390f35b610949600480360360408110156108fd57600080fd5b81019080803573ffffffffffffffffffffffffffffffffffffffff169060200190929190803573ffffffffffffffffffffffffffffffffffffffff169060200190929190505050611725565b604051808215151515815260200191505060405180910390f35b61098f6004803603602081101561097957600080fd5b81019080803590602001909291905050506117b9565b604051808681526020018581526020018481526020018381526020018281526020019550505050505060405180910390f35b60006380ac58cd60e01b7bffffffffffffffffffffffffffffffffffffffffffffffffffffffff1916827bffffffffffffffffffffffffffffffffffffffffffffffffffffffff19161480610a5a57506301ffc9a760e01b7bffffffffffffffffffffffffffffffffffffffffffffffffffffffff1916827bffffffffffffffffffffffffffffffffffffffffffffffffffffffff1916145b9050919050565b60606040518060400160405280600b81526020017f52696b694b697474696573000000000000000000000000000000000000000000815250905090565b6000600280549050821015610b1b576040517f08c379a00000000000000000000000000000000000000000000000000000000081526004018080602001828103825260188152602001807f54686973206973206e6f7420612076616c6964204e465421000000000000000081525060200191505060405180910390fd5b6005600083815260200190815260200160002060009054906101000a900473ffffffffffffffffffffffffffffffffffffffff169050919050565b610b603382610e4b565b610bb5576040517f08c379a0000000000000000000000000000000000000000000000000000000008152600401808060200182810382526032815260200180611f706032913960400191505060405180910390fd5b610bbf8282611868565b808273ffffffffffffffffffffffffffffffffffffffff163373ffffffffffffffffffffffffffffffffffffffff167f8c5be1e5ebec7d5bd14f71427d1e84f3dd0314c0f7b2291e5b200ac8c7c3b92560405160405180910390a45050565b6000600280549050905090565b610c358382610e4b565b610c8a576040517f08c379a0000000000000000000000000000000000000000000000000000000008152600401808060200182810382526024815260200180611fec6024913960400191505060405180910390fd5b610c948333611725565b80610ca55750610ca433826118be565b5b80610cdb57508273ffffffffffffffffffffffffffffffffffffffff163373ffffffffffffffffffffffffffffffffffffffff16145b610ce457600080fd5b8173ffffffffffffffffffffffffffffffffffffffff16600073ffffffffffffffffffffffffffffffffffffffff161415610d87576040517f08c379a000000000000000000000000000000000000000000000000000000000815260040180806020018281038252601d8152602001807f72656365697665722063616e6e6f74206265203020616464726573732100000081525060200191505060405180910390fd5b6002805490508110610d9857600080fd5b610da383838361192a565b808273ffffffffffffffffffffffffffffffffffffffff168473ffffffffffffffffffffffffffffffffffffffff167fddf252ad1be2c89b69c2b068fc378daa952ba7f163c4a11628f55a4df523b3ef60405160405180910390a4505050565b600a81565b610e13838383610e08565b505050565b60056020528060005260406000206000915054906101000a900473ffffffffffffffffffffffffffffffffffffffff1681565b60008273ffffffffffffffffffffffffffffffffffffffff166004600084815260200190815260200160002060009054906101000a900473ffffffffffffffffffffffffffffffffffffffff1673ffffffffffffffffffffffffffffffffffffffff161415610ebd5760019050610ebe565b5b92915050565b60006004600083815260200190815260200160002060009054906101000a900473ffffffffffffffffffffffffffffffffffffffff169050919050565b60015481565b6040518060400160405280600b81526020017f52696b694b69747469657300000000000000000000000000000000000000000081525081565b6000600360008373ffffffffffffffffffffffffffffffffffffffff1673ffffffffffffffffffffffffffffffffffffffff168152602001908152602001600020549050919050565b6040518060400160405280600281526020017f524b00000000000000000000000000000000000000000000000000000000000081525081565b60606040518060400160405280600281526020017f524b000000000000000000000000000000000000000000000000000000000000815250905090565b3373ffffffffffffffffffffffffffffffffffffffff16600073ffffffffffffffffffffffffffffffffffffffff1614156110a2576040517f08c379a000000000000000000000000000000000000000000000000000000000815260040180806020018281038252601b8152602001807f73656e64657220616464726573732063616e6e6f74206265203021000000000081525060200191505060405180910390fd5b60001515600660003373ffffffffffffffffffffffffffffffffffffffff1673ffffffffffffffffffffffffffffffffffffffff16815260200190815260200160002060008473ffffffffffffffffffffffffffffffffffffffff1673ffffffffffffffffffffffffffffffffffffffff16815260200190815260200160002060009054906101000a900460ff16151514611188576040517f08c379a0000000000000000000000000000000000000000000000000000000008152600401808060200182810382526023815260200180611f4d6023913960400191505060405180910390fd5b3373ffffffffffffffffffffffffffffffffffffffff168273ffffffffffffffffffffffffffffffffffffffff16141561120d576040517f08c379a00000000000000000000000000000000000000000000000000000000081526004018080602001828103825260328152602001806120106032913960400191505060405180910390fd5b80600660003373ffffffffffffffffffffffffffffffffffffffff1673ffffffffffffffffffffffffffffffffffffffff16815260200190815260200160002060008473ffffffffffffffffffffffffffffffffffffffff1673ffffffffffffffffffffffffffffffffffffffff16815260200190815260200160002060006101000a81548160ff0219169083151502179055508173ffffffffffffffffffffffffffffffffffffffff163373ffffffffffffffffffffffffffffffffffffffff167f642794df1bc2a1f4cd7b38a2493233dde0490fb4a180cda6dc439f6889e100b583604051808215151515815260200191505060405180910390a35050565b8173ffffffffffffffffffffffffffffffffffffffff163373ffffffffffffffffffffffffffffffffffffffff161415611393576040517f08c379a0000000000000000000000000000000000000000000000000000000008152600401808060200182810382526026815260200180611fa26026913960400191505060405180910390fd5b600073ffffffffffffffffffffffffffffffffffffffff163373ffffffffffffffffffffffffffffffffffffffff161415611436576040517f08c379a000000000000000000000000000000000000000000000000000000000815260040180806020018281038252601b8152602001807f73656e64657220616464726573732063616e6e6f74206265203021000000000081525060200191505060405180910390fd5b6114403382610e4b565b611495576040517f08c379a0000000000000000000000000000000000000000000000000000000008152600401808060200182810382526024815260200180611fc86024913960400191505060405180910390fd5b6114a033838361192a565b5050565b6114ae8584610e4b565b611503576040517f08c379a0000000000000000000000000000000000000000000000000000000008152600401808060200182810382526024815260200180611fec6024913960400191505060405180910390fd5b61150d8533611725565b8061151e575061151d33846118be565b5b8061155457508473ffffffffffffffffffffffffffffffffffffffff163373ffffffffffffffffffffffffffffffffffffffff16145b61155d57600080fd5b8373ffffffffffffffffffffffffffffffffffffffff16600073ffffffffffffffffffffffffffffffffffffffff161415611600576040517f08c379a000000000000000000000000000000000000000000000000000000000815260040180806020018281038252601d8152602001807f72656365697665722063616e6e6f74206265203020616464726573732100000081525060200191505060405180910390fd5b600280549050831061161157600080fd5b61166185858585858080601f016020809104026020016040519081016040528093929190818152602001838380828437600081840152601f19601f82011690508083019250505050505050611ae6565b5050505050565b60003373ffffffffffffffffffffffffffffffffffffffff166000809054906101000a900473ffffffffffffffffffffffffffffffffffffffff1673ffffffffffffffffffffffffffffffffffffffff161461170f576040517f08c379a00000000000000000000000000000000000000000000000000000000081526004018080602001828103825260258152602001806120426025913960400191505060405180910390fd5b61171e60008060008533611b0c565b9050919050565b6000600660008473ffffffffffffffffffffffffffffffffffffffff1673ffffffffffffffffffffffffffffffffffffffff16815260200190815260200160002060008373ffffffffffffffffffffffffffffffffffffffff1673ffffffffffffffffffffffffffffffffffffffff16815260200190815260200160002060009054906101000a900460ff16905092915050565b600080600080600080600287815481106117cf57fe5b906000526020600020906002020190508060010160009054906101000a900467ffffffffffffffff1667ffffffffffffffff1694508060010160089054906101000a900463ffffffff1663ffffffff16935080600101600c9054906101000a900463ffffffff1663ffffffff1692508060010160109054906101000a900461ffff1661ffff169150806000015495505091939590929450565b816005600083815260200190815260200160002060006101000a81548173ffffffffffffffffffffffffffffffffffffffff021916908373ffffffffffffffffffffffffffffffffffffffff1602179055505050565b60008273ffffffffffffffffffffffffffffffffffffffff166005600084815260200190815260200160002060009054906101000a900473ffffffffffffffffffffffffffffffffffffffff1673ffffffffffffffffffffffffffffffffffffffff1614905092915050565b816004600083815260200190815260200160002060006101000a81548173ffffffffffffffffffffffffffffffffffffffff021916908373ffffffffffffffffffffffffffffffffffffffff160217905550600073ffffffffffffffffffffffffffffffffffffffff168373ffffffffffffffffffffffffffffffffffffffff1614611a0157600360008473ffffffffffffffffffffffffffffffffffffffff1673ffffffffffffffffffffffffffffffffffffffff16815260200190815260200160002060008154809291906001900391905055505b600360008373ffffffffffffffffffffffffffffffffffffffff1673ffffffffffffffffffffffffffffffffffffffff168152602001908152602001600020600081548092919060010191905055506005600082815260200190815260200160002060006101000a81549073ffffffffffffffffffffffffffffffffffffffff0219169055808273ffffffffffffffffffffffffffffffffffffffff168473ffffffffffffffffffffffffffffffffffffffff167fddf252ad1be2c89b69c2b068fc378daa952ba7f163c4a11628f55a4df523b3ef60405160405180910390a4505050565b611af184848461192a565b611afd84848484611cd7565b611b0657600080fd5b50505050565b6000611b16611ed4565b6040518060a001604052808581526020014267ffffffffffffffff1681526020018863ffffffff1681526020018763ffffffff1681526020018661ffff16815250905060006001600283908060018154018082558091505090600182039060005260206000209060020201600090919290919091506000820151816000015560208201518160010160006101000a81548167ffffffffffffffff021916908367ffffffffffffffff16021790555060408201518160010160086101000a81548163ffffffff021916908363ffffffff160217905550606082015181600101600c6101000a81548163ffffffff021916908363ffffffff16021790555060808201518160010160106101000a81548161ffff021916908361ffff16021790555050500390507f0a5311bd2a6608f08a180df2ee7c5946819a649b204b554bb8e39825b2c50ad584828a8a89604051808673ffffffffffffffffffffffffffffffffffffffff1673ffffffffffffffffffffffffffffffffffffffff1681526020018581526020018481526020018381526020018281526020019550505050505060405180910390a1611cc96000858361192a565b809250505095945050505050565b6000611ce284611ebb565b611cef5760019050611eb3565b60008473ffffffffffffffffffffffffffffffffffffffff1663150b7a02338887876040518563ffffffff1660e01b8152600401808573ffffffffffffffffffffffffffffffffffffffff1673ffffffffffffffffffffffffffffffffffffffff1681526020018473ffffffffffffffffffffffffffffffffffffffff1673ffffffffffffffffffffffffffffffffffffffff16815260200183815260200180602001828103825283818151815260200191508051906020019080838360005b83811015611dca578082015181840152602081019050611daf565b50505050905090810190601f168015611df75780820380516001836020036101000a031916815260200191505b5095505050505050602060405180830381600087803b158015611e1957600080fd5b505af1158015611e2d573d6000803e3d6000fd5b505050506040513d6020811015611e4357600080fd5b810190808051906020019092919050505090506040518080611f1e602f9139602f01905060405180910390207bffffffffffffffffffffffffffffffffffffffffffffffffffffffff1916817bffffffffffffffffffffffffffffffffffffffffffffffffffffffff1916149150505b949350505050565b600080823b905060008163ffffffff1611915050919050565b6040518060a0016040528060008152602001600067ffffffffffffffff168152602001600063ffffffff168152602001600063ffffffff168152602001600061ffff168152509056fe6f6e455243373231526563656976656428616464726573732c616464726573732c75696e743235362c62797465732954686973206f70657261746f7220616c726561647920676f7420617070726f76616c21596f75206e65656420746f206f776e207468697320746f6b656e20696e206f7264657220746f20617070726f766520697421796f752063616e6e6f742073656e64206120746f6b656e496420746f20796f757273656c6621596f7520617265206e6f7420746865206f776e6572206f66207468697320746f6b656e216d73672e73656e646572206973206e6f74207468652063757272656e74206f776e6572214f70657261746f72206163636f756e742063616e6e6f74206265207468652073616d65206173206d73672e73656e6465722154686973206973206f6e6c792065786563757461626c6520627920746865206f776e657221a265627a7a723158206fda472e8ffc9a52e89dbe7860eefe9fd94f743275d0a84497f029cc089e47ed64736f6c63430005110032",
  "source": "//SPDX-License-Identifier: MIT\n\npragma solidity ^0.5.12;\n\nimport \"./IERC721.sol\";\nimport \"./Ownable.sol\";\nimport \"./IERC721Receiver.sol\";\n\ncontract Kittycontract is IERC721, Ownable {\n\n\n    string public constant tokenName = \"RikiKitties\";\n    string public constant tokenSymbol = \"RK\";\n    bytes4 internal constant MAGIC_ERC721_RECEIVED = bytes4(keccak256(\"onERC721Received(address,address,uint256,bytes)\"));\n    uint256 public constant Creation_Limit_Gen = 10;\n    uint256 public gencounter = 0;\n    bytes4 private constant _INTERFACE_ID_ERC721 = 0x80ac58cd;\n    bytes4 private constant _INTERFACE_ID_ERC165 = 0x01ffc9a7;\n\n\n    event Birth(\n        address owner, \n        uint256 kittenId, \n        uint256 mumId, \n        uint256 dadId, \n        uint256 genes);\n    \n    event approvalForAll(address indexed owner, address indexed operator, bool approved);\n    event Approval(address indexed owner, address indexed approved, uint256 indexed tokenId);\n\n    struct Kitty {\n        uint256 genes;\n        uint64 birthTime;\n        uint32 mumId;\n        uint32 dadId;\n        uint16 generation;\n    }\n\n    Kitty [] kitties;\n\n    mapping(address => uint256) ownershipTokenCount; // how many token this address has\n    mapping(uint256 => address) ownerOfToken; // who owns this token\n    mapping(uint256 => address) public kittyIndexToApproved; // Who has ownership of the given token\n    mapping(address => mapping(address => bool)) private _operatorApprovals; // MYADDR => OPERATORADDR => True/False\n\n  /*  function breed(uint256 _mumId, uint256 _dadId) public returns (uint256){\n        require(_own(msg.sender, _dadId));\n        require(_own(msg.sender, _mumId));\n        //You got the DNA\n\n        (uint256 dadDna,,,,uint256 DadGeneration) = getKitty(_dadId);\n        (uint256 mumDna,,,,uint256 MumGeneration) = getKitty(_mumId);\n\n        _mixDna(_dadId, _mumId);\n\n        uint256 kidGeneration = 0;\n        if(DadGeneration < MumGeneration){\n            kidGeneration = MumGeneration + 1;\n            kidGeneration /=2;\n        }\n        else if(DadGeneration > MumGeneration){\n            kidGeneration = DadGeneration + 1;\n            kidGeneration /= 2;\n        }\n        else {\n            kidGeneration = MumGeneration + 1;\n        }\n        //Figure out the Generation\n        _createKitty(_mumId, _dadId, kidGeneration, newDna, msg.sender);  //Create a new cat with the new properties, give it to the msg.sender\n\n    }*/\n    \n\n    function supportsInterface(bytes4 _interfaceId) public view returns (bool){\n        return (_interfaceId == _INTERFACE_ID_ERC721 || _interfaceId == _INTERFACE_ID_ERC165);\n    }\n\n    function createKittyGen0(uint256 _genes) public onlyOwner returns(uint256){\n        //require(gencounter < Creation_Limit_Gen);\n\n        //gencounter++;\n        \n        return _createKitty(0,0,0,_genes,msg.sender);\n\n    }\n\n    function getKitty(uint256 _id\n    ) public view returns(\n        uint256 genes,\n        uint256 birthTime,\n        uint256 mumId,\n        uint256 dadId,\n        uint256 generation\n    ){\n        Kitty storage kitty = kitties[_id];\n\n        birthTime = uint256(kitty.birthTime);\n        mumId = uint256(kitty.mumId);\n        dadId = uint256(kitty.dadId);\n        generation = uint256(kitty.generation);\n        genes = uint256(kitty.genes);\n    }\n\n    function _createKitty(\n        uint256 _mumId,\n        uint256 _dadId,\n        uint256 _generation,\n        uint256 _genes,\n        address owner\n    ) private returns(uint256){\n        Kitty memory _kitty = Kitty({\n            genes: _genes,\n            birthTime: uint64(block.timestamp),\n            mumId: uint32(_mumId),\n            dadId: uint32(_dadId),\n            generation: uint16(_generation)\n        });\n        uint newKittenId = kitties.push(_kitty) - 1;\n\n        emit Birth(owner, newKittenId, _mumId, _dadId, _genes);\n\n       _transfer(address(0), owner, newKittenId);\n\n\n       return newKittenId;\n    }\n\n    function balanceOf(address owner) external view returns (uint256){\n        return ownershipTokenCount[owner];\n    }\n\n    function totalSupply()  external view returns (uint256){\n        return kitties.length;\n    }\n\n    function name() external  view returns (string memory){\n        return tokenName;\n    }\n\n    function symbol() external  view returns (string memory){\n        return tokenSymbol;\n    }\n\n    function ownerOf(uint256 tokenId) external  view returns (address){\n        return ownerOfToken[tokenId];\n    }\n\n    function transfer(address to, uint256 tokenId) external  {\n        require(msg.sender != to, \"you cannot send a tokenId to yourself!\");\n        require(msg.sender != address(0),\"sender address cannot be 0!\");\n        require(_own(msg.sender, tokenId), \"You are not the owner of this token!\");\n        \n        _transfer(msg.sender, to, tokenId);       \n    }\n\n    function _own(address _claimant, uint256 _tokenId) public view returns(bool){\n        if(ownerOfToken[_tokenId] == _claimant)\n        return true;      \n    }\n\n    function _transfer(address from, address to, uint _tokenId) internal{\n\n        ownerOfToken[_tokenId] = to;\n\n        if(from != address(0)){\n            ownershipTokenCount[from]--;\n        }      \n        ownershipTokenCount[to]++;\n        delete kittyIndexToApproved[_tokenId];\n\n        emit Transfer(from, to, _tokenId);\n    }\n\n    function approve (address _approved, uint256 _tokenId) external {\n        require(_own(msg.sender, _tokenId), \"You need to own this token in order to approve it!\");\n\n        _approve(_approved, _tokenId);\n        emit Approval(msg.sender, _approved, _tokenId);\n    }\n\n    function setApprovalForAll(address _operator, bool _approved) external{\n        require(address(0)!= msg.sender, \"sender address cannot be 0!\");\n        require(_operatorApprovals[msg.sender][_operator] == false, \"This operator already got approval!\");\n        require(_operator != msg.sender ,\"Operator account cannot be the same as msg.sender!\");\n\n        _operatorApprovals[msg.sender][_operator] = _approved;\n\n        emit approvalForAll(msg.sender, _operator, _approved);\n    }\n\n    function getApproved(uint256 _tokenId) external view returns(address){\n        require(_tokenId >= kitties.length, \"This is not a valid NFT!\");\n\n        return kittyIndexToApproved[_tokenId];\n    }\n\n    function isApprovedForAll(address _owner, address _operator) public view returns(bool){\n        return _operatorApprovals[_owner][_operator];\n    }\n\n    function _approve(address _approved, uint256 _tokenId) internal {\n        kittyIndexToApproved[_tokenId] = _approved;\n    }\n\n    function transferFrom(address _from, address _to,uint256 _tokenId) external{\n        require(_own(_from, _tokenId), \"msg.sender is not the current owner!\");\n        require(isApprovedForAll(_from, msg.sender) || _approvedFor(msg.sender, _tokenId)  || msg.sender == _from);\n        require(address(0)!= _to, \"receiver cannot be 0 address!\");\n        require(_tokenId < kitties.length);\n\n        _transfer(_from, _to, _tokenId);\n\n        emit Transfer(_from, _to, _tokenId);\n\n    }\n\n    function _approvedFor(address _claimant, uint256 _tokenId) internal view returns (bool){\n        return kittyIndexToApproved[_tokenId] == _claimant;\n    }\n    function _checkERC721Support(address _from, address _to, uint256 _tokenId, bytes memory _data)internal returns (bool){\n        if(!_isContract(_to) ){\n            return true;\n        }\n        //Call onERC721Received in the _to contract\n        bytes4 returnData = IERC721Receiver(_to).onERC721Received(msg.sender, _from, _tokenId, _data);\n        return returnData == MAGIC_ERC721_RECEIVED;\n\n        //Check return value\n    }\n    function _isContract(address _to) view internal returns (bool){\n        uint32 size;\n        assembly{\n            size := extcodesize(_to)\n        }\n        return size > 0;\n    }\n    \n    function _safeTransfer(address _from, address _to, uint256 _tokenId, bytes memory _data) internal{\n        _transfer(_from, _to, _tokenId);\n        require(_checkERC721Support(_from, _to, _tokenId, _data) );\n    }\n    function safeTransferFrom(address _from, address _to, uint256 _tokenId, bytes calldata data) external {\n        require(_own(_from, _tokenId), \"msg.sender is not the current owner!\");\n        require(isApprovedForAll(_from, msg.sender) || _approvedFor(msg.sender, _tokenId)  || msg.sender == _from);\n        require(address(0)!= _to, \"receiver cannot be 0 address!\");\n        require(_tokenId < kitties.length);\n\n        _safeTransfer(_from, _to, _tokenId, data);\n    }\n    function safeTransferFrom(address _from, address _to, uint256 _tokenId) public{\n        safeTransferFrom(_from, _to, _tokenId);\n    }\n\n    function _mixDna(uint256 _dadDna, uint256 _mumDna) internal returns (uint256){\n        // dadDna:11 22 33 44 55 66 77 88\n        // mumDna:88 77 66 55 44 33 22 11\n\n        uint256 firstHalf = _dadDna / 100000000; //11223344 \n        uint256 secondHalf = _mumDna % 100000000; // 44332211\n\n        uint newDna = firstHalf * 100000000;\n        newDna = newDna + secondHalf; // 1122334444332211\n        return newDna;\n\n        // \n\n        //10 + 20\n        // 10 * 100 = 1000\n        // 1000 + 20 = 1020\n\n    }\n}\n",
  "sourcePath": "C:/Users/Riki/Desktop/Solidity/CryptoKitties-main/contracts/Kittycontract.sol",
  "compiler": {
    "name": "solc",
    "version": "0.5.17+commit.d19bba13.Emscripten.clang"
  },
  "schemaVersion": "3.3.4",
  "updatedAt": "2022-01-17T12:08:11.457Z",
  "networkType": "ethereum",
  "devdoc": {
    "methods": {}
  },
  "userdoc": {
    "methods": {}
  }
}