{
  "contractName": "KittyMarketPlace",
  "abi": [
    {
      "inputs": [
        {
          "internalType": "address",
          "name": "_KittyContractAddress",
          "type": "address"
        }
      ],
      "payable": false,
      "stateMutability": "nonpayable",
      "type": "constructor"
    },
    {
      "anonymous": false,
      "inputs": [
        {
          "indexed": false,
          "internalType": "string",
          "name": "TxType",
          "type": "string"
        },
        {
          "indexed": false,
          "internalType": "address",
          "name": "owner",
          "type": "address"
        },
        {
          "indexed": false,
          "internalType": "uint256",
          "name": "tokenId",
          "type": "uint256"
        }
      ],
      "name": "MarketTransaction",
      "type": "event"
    },
    {
      "constant": false,
      "inputs": [
        {
          "internalType": "address",
          "name": "_kittyContractAddress",
          "type": "address"
        }
      ],
      "name": "setKittyContract",
      "outputs": [],
      "payable": false,
      "stateMutability": "nonpayable",
      "type": "function"
    },
    {
      "constant": true,
      "inputs": [
        {
          "internalType": "uint256",
          "name": "_tokenId",
          "type": "uint256"
        }
      ],
      "name": "getOffer",
      "outputs": [
        {
          "internalType": "address",
          "name": "seller",
          "type": "address"
        },
        {
          "internalType": "uint256",
          "name": "price",
          "type": "uint256"
        },
        {
          "internalType": "uint256",
          "name": "index",
          "type": "uint256"
        },
        {
          "internalType": "uint256",
          "name": "tokenId",
          "type": "uint256"
        },
        {
          "internalType": "bool",
          "name": "active",
          "type": "bool"
        }
      ],
      "payable": false,
      "stateMutability": "view",
      "type": "function"
    },
    {
      "constant": true,
      "inputs": [],
      "name": "getAllTokenOnSale",
      "outputs": [
        {
          "internalType": "uint256[]",
          "name": "listOfOffers",
          "type": "uint256[]"
        }
      ],
      "payable": false,
      "stateMutability": "view",
      "type": "function"
    },
    {
      "constant": true,
      "inputs": [
        {
          "internalType": "address",
          "name": "_address",
          "type": "address"
        },
        {
          "internalType": "uint256",
          "name": "_tokenId",
          "type": "uint256"
        }
      ],
      "name": "_ownCat",
      "outputs": [
        {
          "internalType": "bool",
          "name": "",
          "type": "bool"
        }
      ],
      "payable": false,
      "stateMutability": "view",
      "type": "function"
    },
    {
      "constant": false,
      "inputs": [
        {
          "internalType": "uint256",
          "name": "_price",
          "type": "uint256"
        },
        {
          "internalType": "uint256",
          "name": "_tokenId",
          "type": "uint256"
        }
      ],
      "name": "setOffer",
      "outputs": [],
      "payable": false,
      "stateMutability": "nonpayable",
      "type": "function"
    },
    {
      "constant": false,
      "inputs": [
        {
          "internalType": "uint256",
          "name": "_tokenId",
          "type": "uint256"
        }
      ],
      "name": "removeOffer",
      "outputs": [],
      "payable": false,
      "stateMutability": "nonpayable",
      "type": "function"
    },
    {
      "constant": false,
      "inputs": [
        {
          "internalType": "uint256",
          "name": "_tokenId",
          "type": "uint256"
        }
      ],
      "name": "buyKitty",
      "outputs": [],
      "payable": true,
      "stateMutability": "payable",
      "type": "function"
    }
  ],
  "bytecode": "0x608060405234801561001057600080fd5b506040516115d43803806115d48339818101604052602081101561003357600080fd5b8101908080519060200190929190505050336000806101000a81548173ffffffffffffffffffffffffffffffffffffffff021916908373ffffffffffffffffffffffffffffffffffffffff1602179055506100938161009960201b60201c565b50610182565b3373ffffffffffffffffffffffffffffffffffffffff166000809054906101000a900473ffffffffffffffffffffffffffffffffffffffff1673ffffffffffffffffffffffffffffffffffffffff161461013e576040517f08c379a00000000000000000000000000000000000000000000000000000000081526004018080602001828103825260258152602001806115af6025913960400191505060405180910390fd5b80600160006101000a81548173ffffffffffffffffffffffffffffffffffffffff021916908373ffffffffffffffffffffffffffffffffffffffff16021790555050565b61141e806101916000396000f3fe6080604052600436106100705760003560e01c806362b7f94e1161004e57806362b7f94e146101ef578063941b055b1461024057806395a0f9c714610285578063ae5310f6146102c057610070565b80634579268a1461007557806349b3709f146101105780635933826e1461017c575b600080fd5b34801561008157600080fd5b506100ae6004803603602081101561009857600080fd5b81019080803590602001909291905050506102ee565b604051808673ffffffffffffffffffffffffffffffffffffffff1673ffffffffffffffffffffffffffffffffffffffff168152602001858152602001848152602001838152602001821515151581526020019550505050505060405180910390f35b34801561011c57600080fd5b50610125610369565b6040518080602001828103825283818151815260200191508051906020019060200280838360005b8381101561016857808201518184015260208101905061014d565b505050509050019250505060405180910390f35b34801561018857600080fd5b506101d56004803603604081101561019f57600080fd5b81019080803573ffffffffffffffffffffffffffffffffffffffff16906020019092919080359060200190929190505050610491565b604051808215151515815260200191505060405180910390f35b3480156101fb57600080fd5b5061023e6004803603602081101561021257600080fd5b81019080803573ffffffffffffffffffffffffffffffffffffffff169060200190929190505050610577565b005b34801561024c57600080fd5b506102836004803603604081101561026357600080fd5b810190808035906020019092919080359060200190929190505050610660565b005b34801561029157600080fd5b506102be600480360360208110156102a857600080fd5b8101908080359060200190929190505050610af2565b005b6102ec600480360360208110156102d657600080fd5b8101908080359060200190929190505050610d02565b005b6000806000806000806003600088815260200190815260200160002090508060000160009054906101000a900473ffffffffffffffffffffffffffffffffffffffff168160010154826002015483600301548460040160009054906101000a900460ff16849450955095509550955095505091939590929450565b6060600060028054905014156103b15760006040519080825280602002602001820160405280156103a95781602001602082028038833980820191505090505b50905061048e565b60606002805490506040519080825280602002602001820160405280156103e75781602001602082028038833980820191505090505b509050600080905060008090505b60028054905081101561048757600115156002828154811061041357fe5b906000526020600020906005020160040160009054906101000a900460ff161515141561047a576002818154811061044757fe5b90600052602060002090600502016003015483838151811061046557fe5b60200260200101818152505081806001019250505b80806001019150506103f5565b5081925050505b90565b60008273ffffffffffffffffffffffffffffffffffffffff16600160009054906101000a900473ffffffffffffffffffffffffffffffffffffffff1673ffffffffffffffffffffffffffffffffffffffff16636352211e846040518263ffffffff1660e01b81526004018082815260200191505060206040518083038186803b15801561051d57600080fd5b505afa158015610531573d6000803e3d6000fd5b505050506040513d602081101561054757600080fd5b810190808051906020019092919050505073ffffffffffffffffffffffffffffffffffffffff1614905092915050565b3373ffffffffffffffffffffffffffffffffffffffff166000809054906101000a900473ffffffffffffffffffffffffffffffffffffffff1673ffffffffffffffffffffffffffffffffffffffff161461061c576040517f08c379a000000000000000000000000000000000000000000000000000000000815260040180806020018281038252602581526020018061130d6025913960400191505060405180910390fd5b80600160006101000a81548173ffffffffffffffffffffffffffffffffffffffff021916908373ffffffffffffffffffffffffffffffffffffffff16021790555050565b61066a3382610491565b6106bf576040517f08c379a000000000000000000000000000000000000000000000000000000000815260040180806020018281038252602a8152602001806113c0602a913960400191505060405180910390fd5b600015156003600083815260200190815260200160002060040160009054906101000a900460ff1615151461073f576040517f08c379a00000000000000000000000000000000000000000000000000000000081526004018080602001828103825260288152602001806112e56028913960400191505060405180910390fd5b600160009054906101000a900473ffffffffffffffffffffffffffffffffffffffff1673ffffffffffffffffffffffffffffffffffffffff1663e985e9c533306040518363ffffffff1660e01b8152600401808373ffffffffffffffffffffffffffffffffffffffff1673ffffffffffffffffffffffffffffffffffffffff1681526020018273ffffffffffffffffffffffffffffffffffffffff1673ffffffffffffffffffffffffffffffffffffffff1681526020019250505060206040518083038186803b15801561081257600080fd5b505afa158015610826573d6000803e3d6000fd5b505050506040513d602081101561083c57600080fd5b81019080805190602001909291905050506108a2576040517f08c379a00000000000000000000000000000000000000000000000000000000081526004018080602001828103825260398152602001806113876039913960400191505060405180910390fd5b60006108ac611204565b6040518060a001604052803373ffffffffffffffffffffffffffffffffffffffff168152602001858152602001838152602001848152602001600115158152509050806003600085815260200190815260200160002060008201518160000160006101000a81548173ffffffffffffffffffffffffffffffffffffffff021916908373ffffffffffffffffffffffffffffffffffffffff16021790555060208201518160010155604082015181600201556060820151816003015560808201518160040160006101000a81548160ff0219169083151502179055509050506002819080600181540180825580915050906001820390600052602060002090600502016000909192909190915060008201518160000160006101000a81548173ffffffffffffffffffffffffffffffffffffffff021916908373ffffffffffffffffffffffffffffffffffffffff16021790555060208201518160010155604082015181600201556060820151816003015560808201518160040160006101000a81548160ff02191690831515021790555050505081806001019250507fd99e4fad9ad6313b1feb588fa8e605e3a9873172f2024330c35dd2b4041a4386338460405180806020018473ffffffffffffffffffffffffffffffffffffffff1673ffffffffffffffffffffffffffffffffffffffff1681526020018381526020018281038252600c8152602001807f437265617465206f666665720000000000000000000000000000000000000000815250602001935050505060405180910390a150505050565b3373ffffffffffffffffffffffffffffffffffffffff166003600083815260200190815260200160002060000160009054906101000a900473ffffffffffffffffffffffffffffffffffffffff1673ffffffffffffffffffffffffffffffffffffffff1614610bac576040517f08c379a000000000000000000000000000000000000000000000000000000000815260040180806020018281038252602f815260200180611332602f913960400191505060405180910390fd5b600115156003600083815260200190815260200160002060040160009054906101000a900460ff16151514610c2c576040517f08c379a00000000000000000000000000000000000000000000000000000000081526004018080602001828103825260438152602001806112816043913960600191505060405180910390fd5b60006003600083815260200190815260200160002060040160006101000a81548160ff0219169083151502179055507fd99e4fad9ad6313b1feb588fa8e605e3a9873172f2024330c35dd2b4041a4386338260405180806020018473ffffffffffffffffffffffffffffffffffffffff1673ffffffffffffffffffffffffffffffffffffffff1681526020018381526020018281038252600c8152602001807f52656d6f7665206f666665720000000000000000000000000000000000000000815250602001935050505060405180910390a150565b610d0a611204565b600360008381526020019081526020016000206040518060a00160405290816000820160009054906101000a900473ffffffffffffffffffffffffffffffffffffffff1673ffffffffffffffffffffffffffffffffffffffff1673ffffffffffffffffffffffffffffffffffffffff1681526020016001820154815260200160028201548152602001600382015481526020016004820160009054906101000a900460ff161515151581525050905080602001513414610e15576040517f08c379a000000000000000000000000000000000000000000000000000000000815260040180806020018281038252603581526020018061124c6035913960400191505060405180910390fd5b600115156003600084815260200190815260200160002060040160009054906101000a900460ff16151514610e95576040517f08c379a00000000000000000000000000000000000000000000000000000000081526004018080602001828103825260218152602001806112c46021913960400191505060405180910390fd5b3373ffffffffffffffffffffffffffffffffffffffff166003600084815260200190815260200160002060000160009054906101000a900473ffffffffffffffffffffffffffffffffffffffff1673ffffffffffffffffffffffffffffffffffffffff161415610f50576040517f08c379a00000000000000000000000000000000000000000000000000000000081526004018080602001828103825260268152602001806113616026913960400191505060405180910390fd5b60036000838152602001908152602001600020600080820160006101000a81549073ffffffffffffffffffffffffffffffffffffffff02191690556001820160009055600282016000905560038201600090556004820160006101000a81549060ff0219169055505060006002600360008581526020019081526020016000206002015481548110610fde57fe5b906000526020600020906005020160040160006101000a81548160ff02191690831515021790555060008160200151111561106357806000015173ffffffffffffffffffffffffffffffffffffffff166108fc82602001519081150290604051600060405180830381858888f19350505050158015611061573d6000803e3d6000fd5b505b600160009054906101000a900473ffffffffffffffffffffffffffffffffffffffff1673ffffffffffffffffffffffffffffffffffffffff166330e0789e826000015133856040518463ffffffff1660e01b8152600401808473ffffffffffffffffffffffffffffffffffffffff1673ffffffffffffffffffffffffffffffffffffffff1681526020018373ffffffffffffffffffffffffffffffffffffffff1673ffffffffffffffffffffffffffffffffffffffff1681526020018281526020019350505050600060405180830381600087803b15801561114457600080fd5b505af1158015611158573d6000803e3d6000fd5b505050507fd99e4fad9ad6313b1feb588fa8e605e3a9873172f2024330c35dd2b4041a4386338360405180806020018473ffffffffffffffffffffffffffffffffffffffff1673ffffffffffffffffffffffffffffffffffffffff168152602001838152602001828103825260038152602001807f4275790000000000000000000000000000000000000000000000000000000000815250602001935050505060405180910390a15050565b6040518060a00160405280600073ffffffffffffffffffffffffffffffffffffffff168152602001600081526020016000815260200160008152602001600015158152509056fe546865206d73672e76616c75652068617320746f20626520657175616c20746f2074686520746f6b656e4964277320707269636521596f752063616e6e6f742072656d6f76652074686973206f6666657220617320697420697320616c72656164792072656d6f766564206f72206e6f6e61637469766521596f752063616e206f6e6c79206275792061637469766520746f6b656e496473215468697320746f6b656e20697320616c7265616479206f6e20616e20616374697665206f6666657254686973206973206f6e6c792065786563757461626c6520627920746865206f776e6572214f6e6c7920746865206f776e6572206f6620746869732049642063616e2072656d6f766520746865204f66666572214d61726b6574706c6163653a2043616e6e6f7420627920796f7572206f776e20746f6b656e21436f6e74726163742068617320746f20626520616e206f70657261746f7220696e206f7264657220746f2073657420746865206f6666657221596f75206d757374206f776e20746869732063617420696e206f7264657220746f2073656c6c20697421a265627a7a72315820a73b9b539bcafc45f942f6bf9e6808ea697d4dbcab785e03615ae4e1e1fee28764736f6c6343000511003254686973206973206f6e6c792065786563757461626c6520627920746865206f776e657221",
  "source": "//SPDX-License-Identifier: MIT\r\n\r\npragma solidity ^0.5.12;\r\n\r\nimport \"./Kittycontract.sol\";\r\nimport \"./Ownable.sol\";\r\nimport \"./IKittyMarketplace.sol\";\r\n\r\ncontract KittyMarketPlace is Ownable, IKittyMarketPlace  {\r\n    Kittycontract private _Kittycontract; // This is pointing to the Kitty Contract's address\r\n\r\n\r\n    struct Offer {\r\n        address payable seller;\r\n        uint256 price;\r\n        uint256 index;\r\n        uint256 tokenId;\r\n        bool active;\r\n    }\r\n\r\n\r\n    Offer [] offers;\r\n\r\n    mapping(uint256 =>Offer) tokenIdToOffer;\r\n\r\n    event MarketTransaction(string TxType, address owner, uint256 tokenId);\r\n\r\n    constructor(address _KittyContractAddress) public {\r\n        setKittyContract(_KittyContractAddress);\r\n    }\r\n\r\n    function setKittyContract(address _kittyContractAddress) onlyOwner public{\r\n        _Kittycontract = Kittycontract(_kittyContractAddress);\r\n\r\n    }\r\n\r\n\r\n        /**\r\n    * Get the details about a offer for _tokenId. Throws an error if there is no active offer for _tokenId.\r\n     */\r\n    function getOffer(uint256 _tokenId) external view returns (address seller, uint256 price, uint256 index, uint256 tokenId, bool active){\r\n        Offer storage offer = tokenIdToOffer[_tokenId];\r\n\r\n        return \r\n        (offer.seller,\r\n         offer.price,\r\n         offer.index,\r\n         offer.tokenId,\r\n         offer.active);\r\n    }\r\n\r\n   function getAllTokenOnSale() external view  returns(uint256[] memory listOfOffers){\r\n       if(offers.length == 0){\r\n           return new uint256[](0);\r\n       }\r\n       else {\r\n        uint256[] memory _listOfOffers = new uint[](offers.length);\r\n        uint256 counter = 0;\r\n        for(uint i = 0; i < offers.length; i++){\r\n            if(offers[i].active == true){\r\n                _listOfOffers[counter] = offers[i].tokenId;\r\n                counter ++;\r\n            }\r\n        }\r\n\r\n        return _listOfOffers; \r\n       }\r\n}\r\n\r\n    function _ownCat(address _address, uint256 _tokenId) public view returns(bool){\r\n        return (_Kittycontract.ownerOf(_tokenId) == _address);\r\n    }\r\n\r\n    function setOffer(uint256 _price, uint256 _tokenId) public {\r\n        require(_ownCat(msg.sender, _tokenId) , \"You must own this cat in order to sell it!\");\r\n        require(tokenIdToOffer[_tokenId].active == false, \"This token is already on an active offer\");\r\n        require(_Kittycontract.isApprovedForAll(msg.sender, address(this)), \"Contract has to be an operator in order to set the offer!\");\r\n\r\n        uint256 index;\r\n        Offer memory newOffer = Offer({\r\n            seller: msg.sender,\r\n            price: _price,\r\n            active: true,\r\n            tokenId : _tokenId,\r\n            index: index\r\n        });\r\n        tokenIdToOffer[_tokenId] = newOffer;\r\n        offers.push(newOffer);\r\n   \r\n        index ++;\r\n\r\n        emit MarketTransaction(\"Create offer\", msg.sender, _tokenId);\r\n\r\n    }\r\n\r\n    function removeOffer(uint256 _tokenId) public {\r\n        require(tokenIdToOffer[_tokenId].seller == msg.sender, \"Only the owner of this Id can remove the Offer!\");\r\n        require(tokenIdToOffer[_tokenId].active == true, \"You cannot remove this offer as it is already removed or nonactive!\");\r\n        tokenIdToOffer[_tokenId].active = false;\r\n\r\n        emit MarketTransaction(\"Remove offer\", msg.sender, _tokenId);\r\n    }\r\n\r\n    function buyKitty(uint256 _tokenId) public payable {\r\n        Offer memory offer = tokenIdToOffer[_tokenId];\r\n        require(msg.value == offer.price, \"The msg.value has to be equal to the tokenId's price!\");\r\n        require(tokenIdToOffer[_tokenId].active == true, \"You can only buy active tokenIds!\");\r\n        require(tokenIdToOffer[_tokenId].seller != msg.sender, \"Marketplace: Cannot by your own token!\");\r\n\r\n\r\n        delete tokenIdToOffer[_tokenId];\r\n        offers[tokenIdToOffer[_tokenId].index].active = false;\r\n\r\n        if(offer.price > 0){\r\n            offer.seller.transfer(offer.price);\r\n        }\r\n\r\n        _Kittycontract._transfer(offer.seller, msg.sender, _tokenId);\r\n\r\n        emit MarketTransaction(\"Buy\", msg.sender, _tokenId);\r\n    }\r\n\r\n}",
  "sourcePath": "C:/Users/Riki/Desktop/Solidity/CryptoKitties-main/contracts/KittyMarketplace.sol",
  "compiler": {
    "name": "solc",
    "version": "0.5.17+commit.d19bba13.Emscripten.clang"
  },
  "schemaVersion": "3.3.4",
  "updatedAt": "2022-02-12T16:41:59.485Z",
  "networkType": "ethereum",
  "devdoc": {
    "methods": {}
  },
  "userdoc": {
    "methods": {
      "getOffer(uint256)": {
        "notice": "Get the details about a offer for _tokenId. Throws an error if there is no active offer for _tokenId."
      }
    }
  }
}